:10000000A9C10000D7C10000D5C10000D3C10000C4
:10001000D1C10000CFC10000CDC10000CBC10000A4
:10002000C9C10000C7C10000C5C10000C3C10000B4
:10003000C1C10000BFC10000BDC10000BBC10000C4
:10004000B9C10000B7C10000B5C10000B3C10000D4
:10005000B1C10000AFC10000ADC10000F9C4000093
:10006000A9C100000C9475080C94AB08A3C1000052
:10007000A1C100009FC100009DC100009BC1000004
:1000800099C1000097C1000095C1000093C1000014
:100090000C9420090C9456098DC100008BC10000FE
:1000A00089C1000087C1000085C1000083C1000034
:1000B00081C100007FC100007DC100007BC1000044
:1000C00079C1000077C1000075C1000073C1000054
:1000D00071C100006FC100006DC100006BC1000064
:1000E00069C100006B066E065D0661066706A5061F
:1000F000720676067C06800684068A068E069206BE
:10010000A50698069C06A006084AD73B3BCE016E82
:1001100084BCBFFDC12F3D6C74319ABD56833DDA5E
:100120003D00C77F11BED9E4BB4C3E916BAAAABE6D
:10013000000000803F0000000A0B02090C0D0E08B1
:1001400007030401000000000000000000000000A0
:10015000000000000000000000000000000000009F
:10016000000012111000000000000000000000005C
:10017000000000000000000000000000010210204C
:1001800020080810204010204080020102010804CD
:100190000201010204081020408080402010080461
:1001A00002018004020180402010080402010804BA
:1001B00002010102040810204080010204081020FE
:1001C0004080050505050705080808080202020227
:1001D0000A0A0808040404040101010101010101E3
:1001E0000303030303030303040707070C0C0C0CAE
:1001F0000C0C0C0C02020202060606060606060697
:100200000B0B0B0B0B0B0B0B00002000230026002D
:1002100029002C002F00320000010000030106011C
:10022000090100002200250028002B002E003100CB
:10023000340002010000050108010B01000021004B
:10024000240027002A002D003000330001010000A7
:10025000040107010A0100407A10F35A00A0724E0F
:1002600018090010A5D4E80000E87648170000E45B
:100270000B54020000CA9A3B000000E1F5050000A3
:1002800080969800000040420F000000A086010008
:100290000000102700000000E803000000006400D8
:1002A000000000000A000000000001000000000043
:1002B0002C76D888DC674F0823DFC1DFAE59E1B167
:1002C000B796E5E3E453C63AE651997696E8E6C276
:1002D0008426EB898C9B62ED407C6FFCEFBC9C9F7D
:1002E00040F2BAA56FA5F490055A2AF75C936B6C9F
:1002F000F9676DC11BFCE0E40D47FEF520E6B50093
:10030000D0ED902E0300943577050080841E080000
:1003100000204E0A000000C80C333333330F986EB0
:1003200012831141EF8D2114893BE65516CFFEE66D
:10033000DB18D1844B381BF77C1D901DA4BBE42433
:10034000203284725E228100C9F124ECA1E53D27B0
:10035000DD08880911241FBECFEFD1E2DEBFCDBF7B
:1003600000E00CBF12E0A0E0B2E0EEE8F4E200E052
:100370000BBF02C007900D92A833B107D9F723E055
:10038000A8E3B2E001C01D92A139B207E1F713E082
:10039000C4E5D3E000E006C022970109FE010BBFCF
:1003A0000E94FC0CC035D10780E00807A9F7F4D7FC
:1003B0000C94451225CE60E086E3C8D460E089E362
:1003C000C5D460E088E3C2D460E088E0BFD460E0D8
:1003D00087E3BCD460E089E0B9D460E08CE0B6D4B7
:1003E00026E040E052EC61E070E084EF92E01DD640
:1003F00026E040E052EC61E070E087E592E015D63F
:1004000068EE73E080E090E090C3CF93C82FD7D41C
:10041000892B79F4609100027091010280E090E0F4
:1004200084D38C2FCCD421E0892B09F020E0822FBB
:1004300001C080E0CF91089588E0E7DF882331F0A4
:100440008AE090E0909303028093020287E3DDDF6D
:10045000882331F084E190E09093030280930202BC
:1004600089E0D3DF882321F0109205021092040264
:100470008CE0CBDF882331F081E090E0909305029F
:100480008093040286E3C1DF882331F08EE190E09F
:100490009093030280930202089560914C02709140
:1004A0004D026E3F81E078078CF0882777FD8095BC
:1004B000982F0E948E0B24EE33E84EEF5EEB0E94E5
:1004C0006E0C21E432E84DE753E414C0693F81E04B
:1004D0007807C4F4882777FD8095982F0E948E0BAB
:1004E00027E339E841E05FEB0E946E0C20E030E04A
:1004F0004FE753E4AED70E945B0B709349026093C1
:10050000480204C0109249021092480260914A02C7
:1005100070914B026C3F81E078078CF0882777FD63
:100520008095982F0E948E0B2FEB3DE74DEF5EEBF1
:100530000E946E0C24EB38E84BE753E414C0673F8D
:1005400081E07807C4F4882777FD8095982F0E9472
:100550008E0B2AE43CE042E05FEB0E946E0C20E050
:1005600030E04FE753E475D70E945B0B709347026E
:100570006093460208951092470210924602089531
:100580002F923F924F925F926F927F928F929F92A3
:10059000AF92BF92CF92DF92EF92FF920F931F9391
:1005A000CF93DF93CDB7DEB728970FB6F894DEBFB1
:1005B0000FBECDBF0091480210914902C801AA2781
:1005C00097FDA095BA2F89839A83AB83BC83209033
:1005D0000202309003020115110509F454C0809104
:1005E000040290910502892B09F44DC060914602E6
:1005F00070914702882777FD8095982F0E948E0B77
:100600009B01AC0169817A818B819C812D833E8322
:100610004F8358870E948E0B2D813E814F815885D4
:100620008BD76B017C0120E030E0A9010E94630CB4
:100630002AED3FE049EC5FE387FD04C0C701B60146
:1006400007D703C0C701B60104D72AED3FE049EC44
:100650005FE3C9D74B015C01B101660F771F8827A3
:1006600077FD8095982F0E948E0B20E030E040E2CD
:1006700052E4B9D79B01AC01C501B4010E946E0CD4
:100680002B013C0103C0412C512C3201B1018827C0
:1006900077FD8095982F0E948E0B4B015C0169813C
:1006A0007A818B819C810E948E0B20E030E04FE7A5
:1006B00053E499D7A50194010E946E0C9B01AC01F3
:1006C000C8D669837A838B839C8320E030E040E244
:1006D00052E4C301B2010E946E0C2B013C019B014C
:1006E000AC0169817A818B819C81B2D620E030E0B7
:1006F00040E05FE30E946E0C60933C0270933D0209
:1007000080933E0290933F02A301920169817A8116
:100710008B819C819ED620E030E040E05FE30E9428
:100720006E0C609338027093390280933A02909372
:100730003B02012B09F03BC0009146021091470299
:10074000101611061CF00115110589F1B801882752
:1007500077FD8095982FE2D720E030E04FE753E413
:1007600042D7A50194010E946E0C60933C027093E5
:100770003D0280933E0290933F0266277727601BDD
:10078000710B882777FD8095982FC8D720E030E03F
:100790004FE753E428D7A50194010E946E0C6093A3
:1007A00038027093390280933A0290933B0221E21F
:1007B00030EB42EB5DEBC701B6010E94630C1816EB
:1007C00044F420E030E0A901C701B60108D787FD55
:1007D00013C025E236E049E450ECC701B6010E949F
:1007E000630C1816CCF424EA30E743E450ECC7015C
:1007F000B601F5D687FF10C010923C0210923D0260
:1008000010923E0210923F0210923802109239026A
:1008100010923A0210923B0228960FB6F894DEBF6F
:100820000FBECDBFDF91CF911F910F91FF90EF9041
:10083000DF90CF90BF90AF909F908F907F906F9000
:100840005F904F903F902F900895CF92DF92EF925C
:10085000FF920F931F93CF93DF93CDB7DEB7EC9743
:100860000FB6F894DEBF0FBECDBF40914402509149
:10087000450220914802309149024217530759F42A
:10088000609142027091430280914602909147022A
:100890006817790721F0109241021092400280916E
:1008A0004002909141028230910509F4A3C04217A1
:1008B000530781F440914202509143022091460235
:1008C000309147024217530729F401969093410251
:1008D0008093400255DEC0903C02D0903D02E090F3
:1008E0003E02F0903F0220E030E040E85FEBC701BD
:1008F000B601E9D718169CF520E030E040E85FE348
:10090000C701B6016CD687FF2AC0C0903802D090CC
:100910003902E0903A02F0903B0220E030E040E8FB
:100920005FEBC701B601CFD71816CCF420E030E05A
:1009300040E85FE3C701B60152D687FF10C01092AE
:100940003C0210923D0210923E0210923F02109221
:1009500038021092390210923A0210923B026091D2
:1009600038027091390280913A0290913B028E01D7
:10097000075D1F4F22E045E00E94000DF82EE92E92
:1009800060913C0270913D0280913E0290913F0245
:10099000065F1F4F22E045E00E94000DEF92FF929C
:1009A0009F938F93809105028F93809104028F9380
:1009B0001F9281E08F9387E092E09F938F931F9225
:1009C00084E18F93025311091F930F930E94200D0E
:1009D00064E670E080E090E0A8D0B80184EF92E097
:1009E00026D5B80187E592E022D50FB6F894DEBF90
:1009F0000FBECDBF8091480290914902909345026D
:100A00008093440280914602909147029093430262
:100A100080934202EC960FB6F894DEBF0FBECDBFB6
:100A2000DF91CF911F910F91FF90EF90DF90CF90CA
:100A3000089588E313D190934D0280934C0289E38B
:100A40000DD190934B0280934A02F6DC26DDFDCE59
:100A50001F920F920FB60F9211242F933F938F93F3
:100A60009F93AF93BF9380914F0290915002A091BA
:100A70005102B091520230914E0223E0230F2D37E4
:100A800020F40196A11DB11D05C026E8230F029692
:100A9000A11DB11D20934E0280934F0290935002EE
:100AA000A0935102B093520280915302909154024C
:100AB000A0915502B09156020196A11DB11D8093DF
:100AC000530290935402A0935502B0935602BF91E3
:100AD000AF919F918F913F912F910F900FBE0F90EB
:100AE0001F9018953FB7F89480915302909154024B
:100AF000A0915502B091560226B5A89B05C02F3F84
:100B000019F00196A11DB11D3FBF6627782F892FCF
:100B10009A2F620F711D811D911D42E0660F771F94
:100B2000881F991F4A95D1F708958F929F92AF928F
:100B3000BF92CF92DF92EF92FF926B017C01D2DFE6
:100B40004B015C01C114D104E104F104E1F07FD454
:100B5000C9DF681979098A099B09683E73408105D4
:100B6000910580F321E0C21AD108E108F10888EE6E
:100B7000880E83E0981EA11CB11CC114D104E104AD
:100B8000F10431F7DFCFFF90EF90DF90CF90BF906F
:100B9000AF909F908F900895789484B5826084BDC3
:100BA00084B5816084BD85B5826085BD85B5816071
:100BB00085BDEEE6F0E0808181608083E1E8F0E0D1
:100BC0001082808182608083808181608083E0E800
:100BD000F0E0808181608083E1EBF0E080818460DF
:100BE0008083E0EBF0E0808181608083E1E9F0E0E8
:100BF000808182608083808181608083E0E9F0E091
:100C0000808181608083E1EAF0E08081826080837E
:100C1000808181608083E0EAF0E080818160808370
:100C2000E1E2F1E080818260808380818160808365
:100C3000E0E2F1E0808181608083EAE7F0E080819A
:100C400084608083808182608083808181608083F2
:100C50008081806880831092C1000895863308F0F7
:100C6000865320917B00982F9870277F922B90932A
:100C70007B0087702091060290E4299F9001112447
:100C8000822B80937C0080917A00806480937A002C
:100C900080917A0086FDFCCF8091780020917900C8
:100CA00090E0922B089590E0FC013197E231F1053C
:100CB00008F04BC0EE58FF4F99C6809180008F77A7
:100CC00003C0809180008F7D809380000895809183
:100CD0008000877FF9CF84B58F7702C084B58F7D80
:100CE00084BD08958091B0008F7703C08091B000DB
:100CF0008F7D8093B0000895809190008F7707C01A
:100D0000809190008F7D03C080919000877F8093B9
:100D1000900008958091A0008F7707C08091A00077
:100D20008F7D03C08091A000877F8093A0000895ED
:100D3000809120018F7707C0809120018F7D03C0B3
:100D400080912001877F809320010895CF93DF93C6
:100D500090E0FC01E458FE4F2491FC01EE53FE4F5D
:100D60008491882349F190E0880F991FFC01E45C8D
:100D7000FD4FA591B4918E5D9D4FFC01C591D4911D
:100D80009FB7611108C0F8948C91209582238C93B1
:100D9000888182230AC0623051F4F8948C91322FFA
:100DA000309583238C938881822B888304C0F894A8
:100DB0008C91822B8C939FBFDF91CF910895CF931D
:100DC000DF93282F30E0F901EA5CFE4F8491F901AE
:100DD000E458FE4FD491F901EE53FE4FC491CC2359
:100DE00089F0811160DFEC2FF0E0EE0FFF1FE85F6C
:100DF000FD4FA591B4912C912D2381E090E021F439
:100E000080E002C080E090E0DF91CF910895FC0186
:100E1000818D228D90E0805C9F4F821B91098F73A2
:100E200099270895FC01918D828D981731F0828D5C
:100E3000E80FF11D858D90E008958FEF9FEF0895E5
:100E4000FC01918D828D981761F0828DDF01A80FD2
:100E5000B11D5D968C91928D9F5F9F73928F90E0F4
:100E600008958FEF9FEF089584ED98E0892B39F076
:100E700080E090E0892B19F097D1811124C08FE791
:100E800099E0892B39F080E090E0892B19F037D276
:100E900081111CC080E090E0892B41F080E090E05F
:100EA000892B21F00E940000811113C080E090E0A6
:100EB000892BA1F080E090E0892B81F00E94000056
:100EC00081110AC008950E940000D9CF0E9400003D
:100ED000E1CF0E940000EACF0C9400000895FC01CD
:100EE000848DDF01A80FB11DA35ABF4F2C91848DB3
:100EF00090E001968F739927848FA689B7892C93E8
:100F0000A089B1898C9180648C93938D848D981382
:100F100006C00288F389E02D80818F7D808308954B
:100F2000CF93DF93EC01888D8823C1F0EA89FB8998
:100F3000808185FD05C0A889B9898C9186FD0EC088
:100F40000FB607FCF5CF808185FFF2CFA889B9895C
:100F50008C9185FFEDCFCE01C2DFE8CFDF91CF913D
:100F60000895CF92DF92FF920F931F93CF93DF9359
:100F70001F92CDB7DEB76C0181E0D60158968C93F5
:100F800058975B969C915B975C968C915C979813B5
:100F900007C05096ED91FC915197808185FD2DC041
:100FA000F601038D10E00F5F1F4F0F731127F02E16
:100FB000F601848DF81210C00FB607FCF9CFD601E8
:100FC0005096ED91FC915197808185FFF1CFC6013C
:100FD000698385DF6981ECCF838DE80FF11DE35ACA
:100FE000FF4F6083D6015B960C935B975296ED9111
:100FF000FC915397808180620CC0D6015696ED918A
:10100000FC91579760835096ED91FC9151978081A8
:101010008064808381E090E00F90DF91CF911F91F9
:101020000F91FF90DF90CF900895BF92CF92DF9203
:10103000EF92FF92CF93DF93EC016A017B01B22E16
:10104000E889F98982E08083411581EE58076105BE
:10105000710599F060E079E08DE390E0A7019601D9
:10106000A3D4215031094109510956954795379527
:101070002795211580E1380790F0E889F9891082D9
:1010800060E874E88EE190E0A70196018DD42150CC
:101090003109410951095695479537952795EC85B2
:1010A000FD853083EE85FF852083188EEC89FD89D0
:1010B000B082EA89FB89808180618083EA89FB892B
:1010C000808188608083EA89FB8980818068808351
:1010D000EA89FB8980818F7D8083DF91CF91FF90AA
:1010E000EF90DF90CF90BF9008951F920F920FB6B0
:1010F0000F9211240BB60F922F938F939F93EF9320
:10110000FF93E0916702F09168028081E0916D02A7
:10111000F0916E0282FD12C09081809170028F5F0B
:101120008F7320917102821751F0E0917002F0E00C
:10113000E95AFD4F958F8093700201C08081FF9125
:10114000EF919F918F912F910F900BBE0F900FBE3B
:101150000F901F9018951F920F920FB60F921124A7
:101160000BB60F922F933F934F935F936F937F93A1
:101170008F939F93AF93BF93EF93FF9387E592E095
:10118000AEDEFF91EF91BF91AF919F918F917F91D3
:101190006F915F914F913F912F910F900BBE0F90E8
:1011A0000FBE0F901F90189587E592E030DE21E08A
:1011B000892B09F420E0822F089510925A02109290
:1011C000590288EE93E0A0E0B0E080935B02909338
:1011D0005C02A0935D02B0935E028BE192E090937B
:1011E00058028093570285EC90E0909364028093BC
:1011F000630284EC90E0909366028093650280EC39
:1012000090E0909368028093670281EC90E0909365
:101210006A028093690282EC90E090936C02809362
:101220006B0286EC90E090936E0280936D021092B8
:10123000700210927102109272021092730208955D
:101240001F920F920FB60F9211240BB60F922F938D
:101250008F939F93EF93FF93E0910403F091050325
:101260008081E0910A03F0910B0382FD12C090810E
:1012700080910D038F5F8F7320910E03821751F0C1
:10128000E0910D03F0E0EC50FD4F958F80930D033E
:1012900001C08081FF91EF919F918F912F910F90CD
:1012A0000BBE0F900FBE0F901F9018951F920F92BC
:1012B0000FB60F9211240BB60F922F933F934F93BB
:1012C0005F936F937F938F939F93AF93BF93EF93AE
:1012D000FF9384EF92E003DEFF91EF91BF91AF9116
:1012E0009F918F917F916F915F914F913F912F913E
:1012F0000F900BBE0F900FBE0F901F90189584EFAC
:1013000092E085DD21E0892B09F420E0822F089509
:101310001092F7021092F60288EE93E0A0E0B0E09F
:101320008093F8029093F902A093FA02B093FB0223
:101330008BE192E09093F5028093F4028DEC90E0C3
:1013400090930103809300038CEC90E0909303034F
:101350008093020388EC90E090930503809304034C
:1013600089EC90E090930703809306038AEC90E069
:1013700090930903809308038EEC90E090930B0305
:1013800080930A0310920D0310920E0310920F0324
:101390001092100308950895FFDBFDDF0CD8C4E31D
:1013A000D7E047DB2097E9F35FDDFBCFCF92DF92F9
:1013B000EF92FF920F931F93CF93DF937C016A010B
:1013C000EB0100E010E00C151D0571F06991D701EB
:1013D000ED91FC910190F081E02DC7011995892BC9
:1013E00019F00F5F1F4FEFCFC801DF91CF911F9111
:1013F0000F91FF90EF90DF90CF90089561157105E8
:1014000081F0DB010D900020E9F7AD014150510959
:10141000461B570BDC01ED91FC910280F381E02D1E
:10142000199480E090E0089567E272E0E7CF0F93AF
:101430001F93CF93DF93EC01E1DF8C01CE01F4DF4A
:10144000800F911FDF91CF911F910F910895089503
:101450005058BB27AA270ED0FCC1EDD130F0F2D1F5
:1014600020F031F49F3F11F41EF4BDC10EF4E0955D
:10147000E7FBB3C1E92FFED180F3BA176207730708
:101480008407950718F071F49EF516C20EF4E095E6
:101490000B2EBA2FA02D0B01B90190010C01CA012E
:1014A000A0011124FF27591B99F0593F50F4503ED9
:1014B00068F11A16F040A22F232F342F4427585FCB
:1014C000F3CF469537952795A795F0405395C9F7E3
:1014D0007EF41F16BA0B620B730B840BBAF091509B
:1014E000A1F0FF0FBB1F661F771F881FC2F70EC03A
:1014F000BA0F621F731F841F48F48795779567950D
:10150000B795F7959E3F08F0B3CF9395880F08F0F5
:101510009927EE0F9795879508958DD158F080E81B
:1015200091E009F49EEF8ED128F040E851E059F4A3
:101530005EEF09C058C1C0C1E92FE0789BD168F3C4
:10154000092E052AC1F3261737074807590738F02F
:101550000E2E07F8E02569F0E025E0640AC0EF638D
:1015600007F8009407FADB01B9019D01DC01CA010B
:10157000AD01EF9347D06DD10AD05F91552331F083
:101580002BED3FE049E450FD49EC63CF0895DF9334
:10159000DD27B92FBF7740E85FE316161706480727
:1015A0005B0710F4D92F93D19F938F937F936F9301
:1015B000F8D1E8E0F1E01AD14CD12F913F914F9151
:1015C0005F9198D1DD2349F09058A2EA2AED3FE0DF
:1015D00049EC5FE3D0785D274DDFDF913AC1D9D088
:1015E00008F481E008950CD034C12CD140F023D10F
:1015F00030F021F45F3F19F0F0C051115EC1F3C02B
:1016000039D198F39923C9F35523B1F3951B550BA1
:10161000BB27AA2762177307840738F09F5F5F4FC5
:10162000220F331F441FAA1FA9F333D00E2E3AF006
:10163000E0E830D091505040E695001CCAF729D020
:10164000FE2F27D0660F771F881FBB1F261737076F
:101650004807AB07B0E809F0BB0B802DBF01FF279F
:1016600093585F4F2AF09E3F510568F0B6C025C1E0
:101670005F3FECF3983EDCF3869577956795B795D9
:10168000F7959F5FC9F7880F911D9695879597F9F4
:101690000895E1E0660F771F881FBB1F621773076D
:1016A0008407BA0720F0621B730B840BBA0BEE1F82
:1016B00088F7E095089504D06894B111FEC00895AC
:1016C000E1D088F09F5790F0B92F9927B751A0F03B
:1016D000D1F0660F771F881F991F1AF0BA95C9F7C6
:1016E00012C0B13081F0E8D0B1E00895E5C0672FB5
:1016F000782F8827B85F39F0B93FCCF38695779576
:101700006795B395D9F73EF490958095709561955E
:101710007F4F8F4F9F4F0895E89409C097FB3EF489
:1017200090958095709561957F4F8F4F9F4F99232E
:10173000A9F0F92F96E9BB279395F69587957795AC
:101740006795B795F111F8CFFAF4BB0F11F460FF6C
:101750001BC06F5F7F4F8F4F9F4F16C0882311F0C4
:1017600096E911C0772321F09EE8872F762F05C0D8
:10177000662371F096E8862F70E060E02AF09A9573
:10178000660F771F881FDAF7880F9695879597F968
:101790000895990F0008550FAA0BE0E8FEEF161602
:1017A0001706E807F907C0F012161306E407F50755
:1017B00098F0621B730B840B950B39F40A2661F0C9
:1017C000232B242B252B21F408950A2609F4A1406C
:1017D000A6958FEF811D811D089597F99F6780E879
:1017E00070E060E008959FEF80EC0895DF93CF9361
:1017F0001F930F93FF92EF92DF927B018C0168940D
:1018000005C0DA2EEF0176D0FE01E894A59125916E
:10181000359145915591AEF3EF012CDEFE01970114
:10182000A801DA9479F7DF90EF90FF900F911F9164
:10183000CF91DF91089500240A9416161706180612
:101840000906089500240A941216130614060506C4
:101850000895092E0394000C11F4882352F0BB0F55
:1018600040F4BF2B11F460FF04C06F5F7F4F8F4FB8
:101870009F4F089557FD9058440F551F59F05F3FF3
:1018800071F04795880F97FB991F61F09F3F79F0A2
:1018900087950895121613061406551FF2CF469524
:1018A000F1DF08C0161617061806991FF1CF8695A6
:1018B0007105610508940895E894BB27662777278A
:1018C000CB0197F9089565DF08F48FEF08959B0128
:1018D000AC0160E070E080E89FE385CE0BD0B9CF2B
:1018E000AADF28F0AFDF18F0952309F076CF7BCF81
:1018F0001124E3CFBFDFA0F3959FD1F3950F50E004
:10190000551F629FF001729FBB27F00DB11D639FB1
:10191000AA27F00DB11DAA1F649F6627B00DA11D57
:10192000661F829F2227B00DA11D621F739FB00DFD
:10193000A11D621F839FA00D611D221F749F33276D
:10194000A00D611D231F849F600D211D822F762F06
:101950006A2F11249F5750408AF0E1F088234AF003
:10196000EE0FFF1FBB1F661F771F881F915050404F
:10197000A9F79E3F510570F030CF9FCF5F3FECF34A
:10198000983EDCF3869577956795B795F795E7953B
:101990009F5FC1F7FE2B880F911D9695879597F94C
:1019A00008959B01AC019ACFA1E21A2EAA1BBB1B82
:1019B000FD010DC0AA1FBB1FEE1FFF1FA217B3071B
:1019C000E407F50720F0A21BB30BE40BF50B661F31
:1019D000771F881F991F1A9469F7609570958095F5
:1019E00090959B01AC01BD01CF010895EE0FFF1F43
:1019F0000590F491E02D19940790F691E02D19943B
:101A0000EF920F931F93CF93DF93E80147FF02C03C
:101A100034E101C034E0E42FFF27E7FDF095F7FF44
:101A200003C0F195E195F109E32E022F2E2FAE01AF
:101A300031D2CE01DF91CF911F910F91EF90089598
:101A40000F931F93CF93DF93CDB7DEB72E970FB6CB
:101A5000F894DEBF0FBECDBF0E891F89888D998D8A
:101A600026E02C831A83098397FF02C080E090E868
:101A700001979E838D83AE01445E5F4F6A8D7B8D9F
:101A8000CE01019619D04D815E8157FD0AC02F818C
:101A90003885421753070CF49A01F801E20FF31F3F
:101AA00010822E960FB6F894DEBF0FBECDBFDF9129
:101AB000CF911F910F9108952F923F924F925F9275
:101AC0006F927F928F929F92AF92BF92CF92DF924E
:101AD000EF92FF920F931F93CF93DF93CDB7DEB7B3
:101AE0002C970FB6F894DEBF0FBECDBF7C016B0103
:101AF0008A01FC0117821682838181FFB0C1CE0169
:101B000001964C01F7019381F60193FD859193FFB6
:101B100081916F01882309F49EC1853239F493FDC8
:101B2000859193FF81916F01853221F4B70190E097
:101B30001CD4E8CF512C312C20E02032A0F48B3281
:101B400069F030F4803259F0833269F420612CC09E
:101B50008D3239F0803339F4216026C02260246050
:101B600023C0286021C027FD27C030ED380F3A3050
:101B700078F426FF06C0FAE05F9E300D1124532E44
:101B800013C08AE0389E300D1124332E20620CC021
:101B90008E3221F426FD5FC1206406C08C3611F41C
:101BA000206802C0883641F4F60193FD859193FFC9
:101BB00081916F018111C1CF982F9F7D95549330F2
:101BC00028F40C5F1F4FFFE3F9830DC0833631F01B
:101BD000833771F0833509F057C021C0F801808147
:101BE00089830E5F1F4F44244394512C540114C029
:101BF0003801F2E06F0E711CF801A080B18026FF61
:101C000003C0652D70E002C06FEF7FEFC5012C8728
:101C1000A1D32C0183012C852F77222E16C03801E9
:101C2000F2E06F0E711CF801A080B18026FF03C0A6
:101C3000652D70E002C06FEF7FEFC5012C877FD369
:101C40002C012C852068222E830123FC19C0832DB2
:101C500090E048165906A0F4B70180E290E085D3E1
:101C60003A94F5CFF50127FC859127FE81915F011C
:101C7000B70190E07AD331103A94F1E04F1A51084D
:101C80004114510479F7DEC0843611F0893631F5FC
:101C9000F80127FF07C060817181828193810C5F09
:101CA0001F4F08C060817181882777FD8095982F2C
:101CB0000E5F1F4F2F76B22E97FF09C0909580952B
:101CC000709561957F4F8F4F9F4F2068B22E2AE00D
:101CD00030E0A4017CD3A82EA81843C0853729F48E
:101CE0002F7EB22E2AE030E025C0F22FF97FBF2EE2
:101CF0008F36C1F018F4883579F0ADC0803719F00F
:101D0000883721F0A8C02F2F2061B22EB4FE0DC05D
:101D10008B2D8460B82E09C024FF0AC09F2F9660C7
:101D2000B92E06C028E030E005C020E130E002C056
:101D300020E132E0F801B7FE07C060817181828145
:101D400093810C5F1F4F06C06081718180E090E03D
:101D50000E5F1F4FA4013BD3A82EA818FB2DFF77C1
:101D6000BF2EB6FE0BC02B2D2E7FA51450F4B4FE53
:101D70000AC0B2FC08C02B2D2E7E05C07A2C2B2D5C
:101D800003C07A2C01C0752C24FF0DC0FE01EA0DA2
:101D9000F11D8081803311F4297E09C022FF06C025
:101DA0007394739404C0822F867809F0739423FD92
:101DB00012C020FF06C05A2C731418F4530C571885
:101DC000732C731460F4B70180E290E02C87CDD2BD
:101DD00073942C85F6CF731410F4371801C0312C8E
:101DE00024FF11C0B70180E390E02C87BED22C8580
:101DF00022FF16C021FF03C088E590E002C088E7FB
:101E000090E0B7010CC0822F867851F021FD02C00E
:101E100080E201C08BE227FD8DE2B70190E0A5D200
:101E2000A51430F4B70180E390E09FD25A94F8CF24
:101E3000AA94F401EA0DF11D8081B70190E095D2DA
:101E4000A110F6CF332009F45DCEB70180E290E017
:101E50008CD23A94F7CFF7018681978102C08FEF39
:101E60009FEF2C960FB6F894DEBF0FBECDBFDF916B
:101E7000CF911F910F91FF90EF90DF90CF90BF9087
:101E8000AF909F908F907F906F905F904F903F901A
:101E90002F9008956F927F929F92AF92BF92CF92B0
:101EA000DF92EF92FF920F931F93CF93DF93CDB703
:101EB000DEB729970FB6F894DEBF0FBECDBF6A011B
:101EC000B22E102F0C3320F4FF24F394F00E02C036
:101ED0004CE3F42E0F2D27E0AE014F5F5F4F57D13B
:101EE0007981272F2970213031F0E1FC06C0E0FC18
:101EF00006C060E005C06DE203C06BE201C060E2B5
:101F0000AE2DA07173FF36C0662311F084E001C0CE
:101F100083E08B1510F4B81A01C0B12CA1110BC0CD
:101F2000F6018B2D90E2882319F091938150FBCF1D
:101F3000CB0CD11CB12C662331F0F60160839601E5
:101F40002F5F3F4F6901C6010396E2FE05C02EE4F4
:101F5000F601208331E404C02EE6F601208331E649
:101F600031832283FC012B2D30E22223F1F13193C6
:101F70002150FBCF72FF40C0662311F084E001C006
:101F800083E08B1510F4B81A01C0B12CA1110BC05D
:101F9000F6018B2D90E2882319F091938150FBCFAD
:101FA000CB0CD11CB12C662331F0F6016083960175
:101FB0002F5F3F4F6901C6010396E2FE07C029E487
:101FC000F60120832EE4218326E406C029E6F601EB
:101FD00020832EE6218326E62283FC012B2D30E28E
:101FE000222319F031932150FBCFFC01EB0DF11DA1
:101FF00010828EEF9FEFB7C0B1E0611101C0B0E079
:102000004B2F50E01816190624F49C012F5F3F4F08
:1020100002C021E030E0240F351F112329F0412FA9
:1020200050E04F5F5F4F02C040E050E0420F531F4F
:102030002B2D30E04217530714F4B41A01C0B12C11
:102040002E2D287159F4F6012B2D30E2222319F0A0
:1020500031932150FBCFCB0CD11CB12CBB2331F0E1
:10206000F601608396012F5F3F4F6901A1110BC0FC
:10207000F6012B2D30E3222319F031932150FBCFB1
:10208000CB0CD11CB12CF80E0A81372F3071A32E46
:1020900074FF03C0013309F4FA941F142CF42F2D9C
:1020A000293018F028E001C021E0682F392F97FF70
:1020B00002C060E030E0462F532F612C712C3EE2CD
:1020C000932EBC01621B71099B01DC01A41BB50BA3
:1020D000E1E0F0E0EC0FFD1FAE0FBF1FE12EF12C91
:1020E000F194E194F1084F3FFFEF5F0731F4F601FF
:1020F0009082B6016F5F7F4F6B01841795074CF09C
:102100002417350734F4BD01660D771DFB011181DD
:1021100001C010E341505109FFEF6F1A7F0AB60169
:102120006F5F7F4F4E155F0524F0F60110836B0142
:10213000DACF4817590739F4063320F4053319F478
:10214000A11001C011E3F6011083FB018B2D90E279
:10215000882319F091938150FBCFFB01EB0DF11D0A
:10216000108280E090E029960FB6F894DEBF0FBE93
:10217000CDBFDF91CF911F910F91FF90EF90DF9036
:10218000CF90BF90AF909F907F906F900895283030
:1021900008F027E03327DA01990F311D87FD9160A0
:1021A00000966105710539F432602E5F3D9330E38E
:1021B0002A95E1F708959F3F30F080387105610559
:1021C00009F03C5F3C5F3D93913008F08068911DC1
:1021D000DF93CF931F930F93FF92EF92192F987F66
:1021E0009695E92F96959695E90FFF27E055FD4FB7
:1021F00099273327EE24FF24A701E70105900894CF
:10220000079428F4360FE71EF81E491F511D660F6C
:10221000771F881F991F0694A1F70590079428F44B
:10222000E70EF81E491F561FC11D770F881F991F03
:10223000661F0694A1F70590079428F4F80E491F2D
:10224000561FC71FD11D880F991F661F771F069441
:10225000A1F70590079420F4490F561FC71FD81FF8
:10226000990F661F771F881F0694A9F78491109510
:10227000177041F0D695C79557954795F794E79411
:102280001A95C1F7E6E5F2E068941590159135913D
:102290006591959105907FE27395E118F10A430BE2
:1022A000560BC90BD009C0F7E10CF11E431F561F96
:1022B000C91FD01D7EF4703311F48A95E6CFE894DF
:1022C000015030F0080F0AF40027021708F4202FFD
:1022D0002395022F7A3328F079E37D932A95E9F745
:1022E00010C07D932A9589F6069497956795379542
:1022F00017951794E118F10A430B560BC90BD00937
:1023000098F023957E9173957A3308F070E37C936F
:102310002013B8F77E9170617D9330F0839571E35F
:102320007D9370E32A95E1F71124EF90FF900F91D0
:102330001F91CF91DF91992787FD90950895FC011A
:102340000590615070400110D8F7809590958E0FE0
:102350009F1F0895FC016150704001900110D8F753
:10236000809590958E0F9F1F08950F931F93CF9385
:10237000DF93182F092FEB018B8181FD03C08FEFB5
:102380009FEF20C082FF10C04E815F812C813D8174
:10239000421753077CF4E881F9819F012F5F3F4F7B
:1023A00039832883108306C0E885F985812F199524
:1023B000892B29F72E813F812F5F3F4F3F832E834B
:1023C000812F902FDF91CF911F910F910895FA01E6
:1023D000AA27283051F1203181F1E8946F936E7F64
:1023E0006E5F7F4F8F4F9F4FAF4FB1E03ED0B4E055
:1023F0003CD0670F781F891F9A1FA11D680F791F96
:102400008A1F911DA11D6A0F711D811D911DA11DA6
:1024100020D009F468943F912AE0269F11243019B6
:10242000305D3193DEF6CF010895462F4770405D51
:102430004193B3E00FD0C9F7F6CF462F4F70405D00
:102440004A3318F0495D31FD4052419302D0A9F75B
:10245000EACFB4E0A6959795879577956795BA9555
:10246000C9F700976105710508959B01AC010A2E1B
:1024700006945795479537952795BA95C9F7620FF2
:0E248000731F841F951FA01D0895F894FFCFB1
:10248E000A0014000100015325644D25644C257388
:10249E005225734430450000000000B107D60907ED
:1024AE00072007120790070D0A006E616E00696E15
:0824BE0066006F7666002E0037
:00000001FF
