:1000000049C100000C94F20A0C941D0B0C94480B8F
:100010000C94730B0C949E0B0C94C90B0C94F40B66
:100020000C941F0C68C1000066C1000064C1000090
:1000300062C1000060C100005EC100005CC1000040
:100040005AC1000058C1000056C1000054C1000050
:1000500052C1000050C100004EC100000C944A0C77
:100060004AC100000C9423100C94591044C10000A4
:1000700042C1000040C100003EC100003CC1000080
:100080003AC1000038C1000036C1000034C1000090
:100090000C94CE100C9404112EC100002CC1000051
:1000A0002AC1000028C1000026C1000024C10000B0
:1000B00022C1000020C100001EC100001CC10000C0
:1000C0001AC1000018C1000016C100000C9479117B
:1000D0000C94AF1110C100000EC100000CC1000053
:1000E0000AC10000A50A6F0A770A830A900AB10ABA
:1000F000BE0AE20AD80ADA0ADC0ADE0AE40AE60ADA
:10010000540D590D5E0D680D720DEB0D7C0D840DB7
:100110008C0D960DA00DAA0DB90DC30DEB0DCD0DD7
:10012000D70DE10D0D0E100EFF0D030E090E470E3B
:10013000140E180E1E0E220E260E2C0E300E340E2D
:10014000470E3A0E3E0E420E00000A0B02090C0D3D
:100150000E0807030401000000000000000000007A
:10016000000000000000000000000000000000008F
:10017000000000001211100000000000000000004C
:10018000000000000000000000000000000001026C
:100190001020200808102040102040800201020199
:1001A0000804020101020408102040808040201051
:1001B00008040201800402018040201008040201AA
:1001C0000804020101020408102040800102040812
:1001D00010204080050505050705080808080202EB
:1001E00002020A0A080804040404010101010101D1
:1001F00001010303030303030303040707070C0CB4
:100200000C0C0C0C0C0C020202020606060606067A
:1002100006060B0B0B0B0B0B0B0B00002200250033
:1002200028002B002E0031003400020100000501DF
:1002300008010B0100002100240027002A002D00E6
:100240003000330001010000040107010A014E41A2
:100250004E494E495459494E46CDCCCC3D0AD72340
:100260003C17B7D13877CC2B329595E6241FB14F88
:100270000A000020410000C84200401C4620BCBECD
:100280004CCA1B0E5AAEC59D74007F038B103611ED
:10029000E111FE0311241FBECFEFD1E2DEBFCDBFBF
:1002A00000E00CBF12E0A0E0B2E0EAEEF6E300E00E
:1002B0000BBF02C007900D92A234B107D9F724E01A
:1002C000A2E4B2E001C01D92A83FB207E1F712E03C
:1002D000C2E9D2E000E006C022970109FE010BBF8F
:1002E0000E949317CA38D10780E00807A9F70E9437
:1002F00025120C94641B84CE8091100390911103FD
:1003000001969093110380931003089580910E033A
:1003100090910F03019690930F0380930E0308951D
:100320000F931F9326E040E052EC61E070E08BE118
:1003300093E00E94C30F26E040E052EC61E070E0E1
:1003400088EB93E00E94C30F26E040E052EC61E0AE
:1003500070E085E594E00E94C30F61E084E00E94B4
:10036000480E61E087E00E94480E42E050E06CE7F2
:1003700071E083E00E945A0A42E050E066E871E0D2
:1003800082E00E945A0A00E010E02FE733E440E0E8
:1003900050E06FE773EC8DE892E05CD600E010E08F
:1003A0002FE733E440E050E06FE773EC84E592E040
:1003B00051D665E070E08DE892E0FED565E070E032
:1003C00084E592E0F9D561E070E08DE892E008D72D
:1003D00061E070E084E592E01F910F9101C7CF9238
:1003E000DF92EF92FF9220E030E0A9016091CE020F
:1003F0007091CF028091D0029091D1020E94E416B8
:1004000087FD10C081E08093DB0261E084E00E9400
:10041000810E6091CE027091CF028091D0029091B6
:10042000D1021DC01092DB0260E084E00E94810EC8
:10043000C090CE02D090CF02E090D002F090D102D6
:1004400020E030E0A901C701B6010E94E4161816A9
:100450001CF4C701B60103C0C701B60190580E9441
:10046000011685E00E94300D20E030E0A901609186
:10047000C6027091C7028091C8029091C9020E9481
:10048000E41687FD10C081E08093DA0261E087E026
:100490000E94810E6091C6027091C7028091C802CD
:1004A0009091C9021DC01092DA0260E087E00E94BC
:1004B000810EC090C602D090C702E090C802F090B2
:1004C000C90220E030E0A901C701B6010E94E4168C
:1004D00018161CF4C701B60103C0C701B601905835
:1004E0000E94011686E0FF90EF90DF90CF900C9471
:1004F000300D8F929F92AF92BF92CF92DF92EF9288
:10050000FF9288E893E10E94C30C83E00E94CB0A2B
:1005100082E00E94CB0A0E94A00C609306037093B5
:1005200007038093080390930903C0900A03D090B7
:100530000B03E0900C03F0900D036C197D098E09FC
:100540009F0928EE33E040E050E00E947117CA0195
:10055000B9010E9434166093FA027093FB028093F3
:10056000FC029093FD02E0901003F090110320E054
:1005700030E04AE754E40E9499154B015C01B70151
:10058000882777FD8095982F0E943416A501940145
:100590000E94991526EF38E64EE753E40E9499151C
:1005A00020E635EE4FEA51E40E94E8166B017C012B
:1005B00060930203709303038093040390930503F5
:1005C00060910E0370910F03882777FD8095982F17
:1005D0000E943416A50194010E94991526EF38E671
:1005E0004EE753E40E94991520E635EE4FEA51E4B8
:1005F0000E94E8166093FE027093FF02809300034E
:10060000909301032091DB02222361F0F7FAF0942A
:10061000F7F8F094C0920203D0920303E09204032F
:10062000F09205032091DA02222359F0DC01CB017C
:10063000B0588093FE029093FF02A0930003B09302
:1006400001034091020350910303609104037091F0
:1006500005038BE492E0BAD64091FE025091FF026E
:10066000609100037091010382E492E0AFD6109292
:1006700011031092100310920F0310920E030E94A8
:10068000A00C60930A0370930B0380930C03909368
:100690000D0342E050E06CE771E083E00BD742E0ED
:1006A00050E066E871E082E005D76EE172E085E532
:1006B00094E00E946F128BE492E0E0D6AB01BC01A3
:1006C00022E030E085E594E00E94E5136EE172E0FF
:1006D00085E594E00E946F1282E492E0CFD6AB01F0
:1006E000BC0122E030E085E594E0FF90EF90DF90E0
:1006F000CF90BF90AF909F908F900C94E613AF92E5
:10070000BF92CF92DF92EF92FF920F931F93CF93FE
:1007100062E372E084EF92E00E945D1462E372E0B3
:100720008EEE92E00E945D14A0900602B090070247
:10073000C0900802D0900902E0900A02F0900B02EB
:1007400000910C0210910D021F92C1E0CF93809195
:10075000D9028F938091D8028F938091D7028F9383
:100760008091D6028F9320EE32E04EEC52E062EDA3
:1007700072E08DE892E085D5A0900602B090070265
:10078000C0900802D0900902E0900A02F0900B029B
:1007900000910C0210910D021F92CF938091D9020B
:1007A0008F938091D8028F938091D7028F938091FD
:1007B000D6028F932CED32E046EC52E06AEC72E008
:1007C00084E592E05ED566E070E08BE492E0E9D5E6
:1007D0008DB79EB70C960FB6F8949EBF0FBE8DBF17
:1007E00066E070E082E492E0CF911F910F91FF905C
:1007F000EF90DF90CF90BF90AF90D3C582E492E0AE
:10080000AAD58BE492E0A7D58EEE92E00E94F61373
:1008100084EF92E00C94F6136F927F928F929F92E6
:10082000AF92BF92CF92DF92EF92FF920F931F93FE
:10083000CF93DF9300D000D0CDB7DEB720E030E01B
:10084000A9016091E4027091E5028091E602909125
:10085000E7020E94951518160CF4C4C085E594E0D3
:100860000E94B60E181619060CF0FCC085E594E03F
:100870000E94CF0E182F682F84EF92E00E94B214CE
:10088000153461F763E584EF92E00E94E0143C01C7
:100890006DE484EF92E00E94E0144C016CE484EF7C
:1008A00092E00E94E0145C0162E584EF92E00E9415
:1008B000E0146C0164E484EF92E00E94E0148C0187
:1008C00065E484EF92E00E94E0147C01A3014F5F95
:1008D0005F4F940164EF72E0CE0101960E94E31431
:1008E000CE0101960E9426150E9401167093ED021A
:1008F0006093EC02CE0101960E94F613A5014F5FB2
:100900005F4F960164EF72E0CE0101960E94E314FE
:10091000CE0101960E9426156093E0027093E102D9
:100920008093E2029093E302CE0101960E94F613B7
:10093000A6014F5F5F4F980164EF72E0CE01019610
:100940000E94E314CE0101960E9426156093DC02FA
:100950007093DD028093DE029093DF02CE01019658
:100960000E94F613A8014F5F5F4F970164EF72E09A
:10097000CE0101960E94E314CE0101960E94261535
:100980006093E4027093E5028093E6029093E7029D
:10099000CE0101960E94F61362E372E084EF92E0CA
:1009A0000E947214C1D7C090E402D090E502E0909A
:1009B000E602F090E7020E943216A70196010E941B
:1009C00031156093E8027093E9028093EA029093F4
:1009D000EB0222E030E0B701A60185E594E00E9439
:1009E000E51340C0C090E802D090E902E090EA022E
:1009F000F090EB0299D70E9432169B01AC01C7011F
:100A0000B6010E943015AB01BC014093E402509343
:100A1000E5026093E6027093E70222E030E085E5AC
:100A200094E00E94E51320E030E0A9016091E40227
:100A30007091E5028091E6029091E7020E9495157F
:100A4000181684F01092E0021092E1021092E20275
:100A50001092E3021092DC021092DD021092DE028C
:100A60001092DF0288EB93E00E94B60E181619066A
:100A70000CF09CC088EB93E00E94CF0E182F682FDB
:100A80008EEE92E00E94B2141A3061F763E58EEEAA
:100A900092E00E94E0143C016DE48EEE92E00E9430
:100AA000E0144C016CE48EEE92E00E94E0145C01D4
:100AB00062E58EEE92E00E94E0148C0164E48EEE1A
:100AC00092E00E94E0147C0165E48EEE92E00E94C8
:100AD000E0146C01A3014F5F5F4F94016EEE72E072
:100AE000CE0101960E94E314CE0101960E942615C4
:100AF0000E9401167093ED026093EC02CE01019604
:100B00000E94F613A5014F5F5F4F98016EEE72E0F1
:100B1000CE0101960E94E314CE0101960E94261593
:100B20006093E0027093E1028093E2029093E3020B
:100B3000CE0101960E94F613A8014F5F5F4F970107
:100B40006EEE72E0CE0101960E94E314CE01019692
:100B50000E9426156093DC027093DD028093DE0212
:100B60009093DF02CE0101960E94F613A7014F5F1A
:100B70005F4F96016EEE72E0CE0101960E94E31483
:100B8000CE0101960E9426156093E4027093E5025F
:100B90008093E6029093E702CE0101960E94F6133D
:100BA00062E372E08EEE92E00E94721426960FB617
:100BB000F894DEBF0FBECDBFDF91CF911F910F9193
:100BC000FF90EF90DF90CF90BF90AF909F908F906D
:100BD0007F906F90089520DE8CDC8BE492E04ED401
:100BE0006093D2027093D3028093D4029093D50283
:100BF00082E492E043D46093CA027093CB02809364
:100C0000CC029093CD028DE892E004D084E592E08E
:100C100001D0E5CB2F923F924F925F926F927F92DD
:100C20008F929F92AF92BF92CF92DF92EF92FF92FC
:100C30000F931F93CF93DF93CDB7DEB72B970FB6EC
:100C4000F894DEBF0FBECDBF9B878A87DC01D896A4
:100C5000BC91B983B11102C01982E1C065D66A8323
:100C60007B838C839D83EA85FB8580A191A1A2A1D2
:100C7000B3A14A815B816C817D81481B590B6A0B52
:100C80007B0B84A595A5A6A5B7A5481759076A07A4
:100C90007B0710F3028CF38DE02D80809180A28081
:100CA000B380AA85BB855E96ED91FC915F97A50107
:100CB000940160817181828193810E9430152B01A2
:100CC0003C01EA85FB8520893189428953890E944C
:100CD000E816AA85BB8594962D913D914D915C9126
:100CE00097970E9431156B017C01EA85FB8564A30F
:100CF00075A386A397A324A835A806A917A99101CF
:100D0000A8010E94E41618161CF4C101D80118C0ED
:100D1000AA85BB85D0968D919D910D90BC91A02DFB
:100D20008E839F83A887B9879C01AD01C701B60157
:100D30000E94951587FF0AC08E819F81A885B9857D
:100D4000EA85FB8584A395A3A6A3B7A3AA85BB8543
:100D50001C962D913D914D915C911F97C301B2015D
:100D60000E94E816EA85FB8524A135A146A157A17A
:100D70000E9431156B017C01AA85BB8598962D9147
:100D80003D914D915C919B97C501B4010E94301536
:100D9000EA85FB8524893589468957890E94E816AA
:100DA0009B01AC01C701B6010E9430156B017C01AB
:100DB0009101A8010E94E4161816BCF0AA85BB8513
:100DC000D0962C90D097D1963C90D197D2960C91FA
:100DD000D297D3961C919101A801B601C7010E9438
:100DE000951587FD02C016018701AA85BB855C9613
:100DF000ED91FC915D97C101D80180839183A2831D
:100E0000B383EA85FB8580A691A6A2A6B3A68A81B4
:100E10009B81AC81BD8180A391A3A2A3B3A389814F
:100E20002B960FB6F894DEBF0FBECDBFDF91CF91EA
:100E30001F910F91FF90EF90DF90CF90BF90AF90F8
:100E40009F908F907F906F905F904F903F902F90EA
:100E500008952F923F924F925F926F927F928F925E
:100E60009F92AF92BF92CF92DF92EF92FF920F9339
:100E70001F93CF93DF9300D01F92CDB7DEB71C0135
:100E80002A013B014801590120E030E0A901C301DA
:100E9000B2010E94951587FD78C020E030E0A901DD
:100EA000C501B4010E94951587FD6FC020E030E0B8
:100EB000A901C701B6010E94951587FD66C0F10121
:100EC000408251826282738284829582A682B78236
:100ED000C086D186E286F38664A575A586A597A50A
:100EE0000E94321620E030E04AE754E40E9499154F
:100EF00069837A838B839C83F10144865586668659
:100F000077869B01AC01C501B4010E94E8164B0134
:100F10005C01F101608B718B828B938B29813A810B
:100F20004B815C81C701B6010E9499156B017C0160
:100F3000F101648B758B868B978B808D918D0197DA
:100F400021F5A301920160E070E0CB010E94301511
:100F5000F1016487758786879787A501940160E012
:100F600070E0CB010E943015F101608B718B828B98
:100F7000938BA701960160E070E0CB010E943015D1
:100F8000F101648B758B868B978B0F900F900F9070
:100F90000F90DF91CF911F910F91FF90EF90DF9015
:100FA000CF90BF90AF909F908F907F906F905F9009
:100FB0004F903F902F9008958F929F92AF92BF9243
:100FC000CF92DF92EF92FF92CF93DF93EC01161650
:100FD0001706ACF56B01EE24D7FCE094FE2CC7019C
:100FE000B6010E9434164B015C016CA57DA58EA54F
:100FF0009FA50E9432169B01AC01C501B4010E945D
:1010000099154B015C019B01AC01688979898A893A
:101010009B890E94E816688B798B8A8B9B8BA50134
:1010200094016C897D898E899F890E9499156C8BAA
:101030007D8B8E8B9F8BCCA6DDA6EEA6FFA6DF91C7
:10104000CF91FF90EF90DF90CF90BF90AF909F90A7
:101050008F9008952F923F924F925F926F927F925E
:101060008F929F92AF92BF92CF92DF92EF92FF92B8
:101070000F931F93CF93DF93EC016A017B0148012B
:101080005901A9019801C701B6010E94E41687FF22
:101090004EC0C8AAD9AAEAAAFBAA8CAA9DAAAEAA3F
:1010A000BFAA88AD882309F442C02C8C3D8CF10185
:1010B0004080518062807380A5019401C301B20118
:1010C0000E94E416181634F4F10180829182A28203
:1010D000B3820DC0A7019601C301B2010E9495150C
:1010E00087FF05C0F101C082D182E282F3828CA029
:1010F0009DA0AEA0BFA0CCA8DDA8EEA8FFA8A70128
:101100009601C501B4010E94E416181664F0C8A83F
:10111000D9A8EAA8FBA8A7019601C501B4010E94BD
:10112000951587FF04C0CCA2DDA2EEA2FFA2DF913D
:10113000CF911F910F91FF90EF90DF90CF90BF90D4
:10114000AF909F908F907F906F905F904F903F9067
:101150002F9008958F929F92AF92BF92CF92DF927D
:10116000EF92FF92CF93DF93EC01EC8DFD8DC08069
:10117000D180E280F380CCA2DDA2EEA2FFA2EA8DB4
:10118000FB8D80819181A281B38188A799A7AAA7AD
:10119000BBA78CA89DA8AEA8BFA8A5019401C701B4
:1011A000B6010E94E416181664F088A899A8AAA8A7
:1011B000BBA8A5019401C701B6010E94951587FF40
:1011C00004C08CA29DA2AEA2BFA2DF91CF91FF90DE
:1011D000EF90DF90CF90BF90AF909F908F90089549
:1011E0001F93CF93DF93EC0111E06130710509F09B
:1011F00010E088AD91E08927181302C0CE01AADF64
:1012000018AFDF91CF911F9108950F931F93CF9344
:10121000DF93EC018B0188AD882361F1888D998D76
:101220006817790739F12C853D854E855F8560E02B
:1012300070E0CB010E9430156C877D878E879F8779
:10124000288939894A895B8960E070E0CB010E9476
:101250003015688B798B8A8B9B8B2C893D894E89C5
:101260005F8960E070E0CB010E9430156C8B7D8B54
:101270008E8B9F8B198F088FDF91CF911F910F91CC
:1012800008954F925F926F927F928F929F92AF924A
:10129000BF92CF92DF92EF92FF920F931F93CF9363
:1012A000DF9300D01F92CDB7DEB74C012701380184
:1012B000A982BA82CB82DC82FC01558F448F738F66
:1012C000628F378F268F10AE10AA11AA12AA13AA06
:1012D00080E090E0AFE7B3E484AB95ABA6ABB7ABEF
:1012E00084E690E0A0E0B0E084A795A7A6A7B7A702
:1012F0006C8D7D8DC40189DFC88CD98CEA8CFB8C08
:1013000009811A812B813C81B301A201C401A1DDB5
:101310000BD3F40144A455A466A477A464197509F9
:101320008609970960A371A382A393A30F900F90DE
:101330000F900F90DF91CF911F910F91FF90EF9041
:10134000DF90CF90BF90AF909F908F907F906F90E5
:101350005F904F900895FC0187819085009711F070
:101360000C942F180895FC011182128213821482AA
:101370001582168220E030E080E090E0408150E06D
:10138000841795076CF4A781B085A20FB31F1D9237
:101390001D921D921C92139701962C5F3F4FEECF2A
:1013A0000895CF93DF93EC016883CB019927880FD1
:1013B000991F880F991F0E94971798878F83892BF1
:1013C00009F41882CE01DF91CF91CDCFAF92BF92B9
:1013D000CF92DF92EF92FF920F931F93CF93DF9301
:1013E000EC016A017B010F81188501151105D9F106
:1013F0008A81580194E0899FA00CB11C1124F50149
:1014000020813181428153816B817C818D819E81DC
:101410000E9430156B837C838D839E83F501C0828F
:10142000D182E282F382FA80F80184E0F89EE00D36
:10143000F11D112420813181428153816B817C8196
:101440008D819E810E9431156B837C838D839E8369
:10145000F394FA829881F91201C01A82898189175E
:1014600010F48F5F8983DF91CF911F910F91FF90CF
:10147000EF90DF90CF90BF90AF900895CF93DF9320
:10148000EC016981662371F070E080E090E00E94D9
:1014900034169B01AC016B817C818D819E810E9401
:1014A000991504C060E070E080EC9FE7DF91CF9178
:1014B00008950895883008F06DC0E82FF0E0EE0F31
:1014C000FF1FE25FFD4F7183608390E0FC01319765
:1014D000E730F10590F5EE58FF4F0C948D17809191
:1014E00069008C7F842B80936900E89A089580912D
:1014F0006900440F551F440F551F837F842B809331
:101500006900E99A08958091690074E0440F551FBD
:101510007A95E1F78F7C842B80936900EA9A08958D
:101520008091690066E0440F551F6A95E1F78F735B
:10153000842B80936900EB9A089580916A008C7FD8
:10154000842B80936A00EC9A089580916A00440F7E
:10155000551F440F551F837F842B80936A00ED9A9B
:10156000089580916A0024E0440F551F2A95E1F701
:101570008F7C842B80936A00EE9A089580916A0094
:1015800096E0440F551F9A95E1F78F73842B809353
:101590006A00EF9A0895883020F5482F50E0FA014C
:1015A0003197E730F10560F4E758FF4F0C948D1741
:1015B000E8980DC0E9980BC0EA9809C0EB9807C0FD
:1015C000EC9805C0ED9803C0EE9801C0EF98E82FA5
:1015D000F0E0EE0FFF1FE25FFD4F89E59AE0918397
:1015E000808308951F920F920FB60F9211240BB6AD
:1015F0000F922F933F934F935F936F937F938F93AC
:101600009F93AF93BF93EF93FF93E0911202F091FA
:1016100013021995FF91EF91BF91AF919F918F9117
:101620007F916F915F914F913F912F910F900BBEE2
:101630000F900FBE0F901F9018951F920F920FB62C
:101640000F9211240BB60F922F933F934F935F93FA
:101650006F937F938F939F93AF93BF93EF93FF937A
:10166000E0911402F09115021995FF91EF91BF914D
:10167000AF919F918F917F916F915F914F913F912A
:101680002F910F900BBE0F900FBE0F901F901895CB
:101690001F920F920FB60F9211240BB60F922F9339
:1016A0003F934F935F936F937F938F939F93AF93EA
:1016B000BF93EF93FF93E0911602F09117021995F3
:1016C000FF91EF91BF91AF919F918F917F916F911A
:1016D0005F914F913F912F910F900BBE0F900FBED6
:1016E0000F901F9018951F920F920FB60F92112412
:1016F0000BB60F922F933F934F935F936F937F930C
:101700008F939F93AF93BF93EF93FF93E091180252
:10171000F09119021995FF91EF91BF91AF919F91AF
:101720008F917F916F915F914F913F912F910F908A
:101730000BBE0F900FBE0F901F9018951F920F9227
:101740000FB60F9211240BB60F922F933F934F9326
:101750005F936F937F938F939F93AF93BF93EF9319
:10176000FF93E0910E02F0910F021995FF91EF9116
:10177000BF91AF919F918F917F916F915F914F91A9
:101780003F912F910F900BBE0F900FBE0F901F90A7
:1017900018951F920F920FB60F9211240BB60F924D
:1017A0002F933F934F935F936F937F938F939F9369
:1017B000AF93BF93EF93FF93E0911002F09111026A
:1017C0001995FF91EF91BF91AF919F918F917F916B
:1017D0006F915F914F913F912F910F900BBE0F90A2
:1017E0000FBE0F901F9018951F920F920FB60F9279
:1017F00011240BB60F922F933F934F935F936F93E8
:101800007F938F939F93AF93BF93EF93FF93E09159
:101810001A02F0911B021995FF91EF91BF91AF91C0
:101820009F918F917F916F915F914F913F912F91F8
:101830000F900BBE0F900FBE0F901F9018951F9228
:101840000F920FB60F9211240BB60F922F933F9366
:101850004F935F936F937F938F939F93AF93BF93B8
:10186000EF93FF93E0911C02F0911D021995FF91F7
:10187000EF91BF91AF919F918F917F916F915F9108
:101880004F913F912F910F900BBE0F900FBE0F9075
:101890001F9018951F920F920FB60F9211242F933D
:1018A0003F938F939F93AF93BF9380911303909136
:1018B0001403A0911503B09116033091120323E095
:1018C000230F2D3720F40196A11DB11D05C026E878
:1018D000230F0296A11DB11D2093120380931303C1
:1018E00090931403A0931503B093160380911703EC
:1018F00090911803A0911903B0911A030196A11DAC
:10190000B11D8093170390931803A0931903B0930C
:101910001A03BF91AF919F918F913F912F910F909B
:101920000FBE0F901F9018952FB7F8946091130376
:101930007091140380911503909116032FBF0895A1
:101940003FB7F8948091170390911803A091190361
:10195000B0911A0326B5A89B05C02F3F19F0019638
:10196000A11DB11D3FBF6627782F892F9A2F620FC7
:10197000711D811D911D42E0660F771F881F991F01
:101980004A95D1F708958230910538F0880F991F54
:10199000880F991F05970197F1F70895789484B5FA
:1019A000826084BD84B5816084BD85B5826085BD5B
:1019B00085B5816085BDEEE6F0E080818160808341
:1019C000E1E8F0E010828081826080838081816024
:1019D0008083E0E8F0E0808181608083E1EBF0E0EB
:1019E000808184608083E0EBF0E08081816080838F
:1019F000E1E9F0E080818260808380818160808382
:101A0000E0E9F0E0808181608083E1EAF0E08081BC
:101A100082608083808181608083E0EAF0E0808161
:101A200081608083E1E2F1E0808182608083808157
:101A300081608083E0E2F1E0808181608083EAE779
:101A4000F0E08081846080838081826080838081F7
:101A5000816080838081806880831092C1000895B6
:101A60001F93CF93DF93182FEB0161E011D12097E3
:101A700011F460E004C0CF3FD10531F461E0812F63
:101A8000DF91CF911F913DC1E12FF0E0E85BFE4F68
:101A9000449150E0FA013197E231F10508F09BC022
:101AA000E058FF4F0C948D1784B5806884BDC7BD86
:101AB00097C084B5806284BDC8BD92C0809180000B
:101AC000806880938000D0938900C093880088C08C
:101AD00080918000806280938000D0938B00C093BF
:101AE0008A007EC080918000886080938000D093BF
:101AF0008D00C0938C0074C08091B000806880938A
:101B0000B000C093B3006CC08091B000806280933D
:101B1000B000C093B40064C080919000806880934E
:101B20009000D0939900C09398005AC08091900083
:101B3000806280939000D0939B00C0939A0050C025
:101B400080919000886080939000D0939D00C09316
:101B50009C0046C08091A00080688093A000809186
:101B6000A0008F7B8093A000D093A900C093A80011
:101B700037C08091A00080628093A000D093AB001A
:101B8000C093AA002DC08091A00088608093A0001F
:101B9000D093AD00C093AC0023C080912001806839
:101BA00080932001D0932901C093280119C080910E
:101BB0002001806280932001D0932B01C0932A01E1
:101BC0000FC080912001886080932001D0932D0167
:101BD000C0932C0105C0C038D1050CF04FCF49CFC0
:101BE000DF91CF911F91089590E0FC013197E23190
:101BF000F10508F04CC0EE56FF4F0C948D17809104
:101C000080008F7703C0809180008F7D809380005B
:101C1000089580918000877FF9CF84B58F7702C0C7
:101C200084B58F7D84BD08958091B0008F7703C007
:101C30008091B0008F7D8093B000089580919000D6
:101C40008F7707C0809190008F7D03C080919000B6
:101C5000877F8093900008958091A0008F7707C0C0
:101C60008091A0008F7D03C08091A000877F80932A
:101C7000A0000895809120018F7707C080912001F6
:101C80008F7D03C080912001877F8093200108957C
:101C9000CF93DF9390E0FC01E257FE4F2491FC01CB
:101CA000EC52FE4F8491882349F190E0880F991FF0
:101CB000FC01EC5CFD4FA591B491865E9D4FFC014B
:101CC000C591D4919FB7611108C0F8948C9120956B
:101CD00082238C93888182230AC0623051F4F89465
:101CE0008C91322F309583238C938881822B88832B
:101CF00004C0F8948C91822B8C939FBFDF91CF917D
:101D000008950F931F93CF93DF931F92CDB7DEB744
:101D1000282F30E0F901E85BFE4F8491F901E2578A
:101D2000FE4F1491F901EC52FE4F04910023C1F0D3
:101D3000882319F0698358DF6981E02FF0E0EE0F06
:101D4000FF1FE65EFD4FA591B4919FB7F8948C916B
:101D5000611103C01095812301C0812B8C939FBF1B
:101D60000F90DF91CF911F910F910895FC01818D0C
:101D7000228D90E0805C9F4F821B91098F73992781
:101D80000895FC01918D828D981731F0828DE80FB6
:101D9000F11D858D90E008958FEF9FEF0895FC0170
:101DA000918D828D981761F0828DDF01A80FB11D92
:101DB0005D968C91928D9F5F9F73928F90E00895B6
:101DC0008FEF9FEF089582E890E1892B39F080E052
:101DD00090E0892B19F096D1811123C08DE291E119
:101DE000892B39F080E090E0892B19F036D28111EF
:101DF0001BC088ED91E1892B39F080E090E0892BC0
:101E000019F0D6D2811113C080E090E0892BA1F0A7
:101E100080E090E0892B81F00E94000081110AC0CF
:101E200008950E940000DACF0E940000E2CF0E94D5
:101E30000000EACF0C9400000895FC01848DDF01BE
:101E4000A80FB11DA35ABF4F2C91848D90E001962D
:101E50008F739927848FA689B7892C93A089B1891C
:101E60008C9180648C93938D848D981306C0028826
:101E7000F389E02D80818F7D80830895CF93DF9358
:101E8000EC01888D8823C1F0EA89FB89808185FD7A
:101E900005C0A889B9898C9186FD0EC00FB607FCD4
:101EA000F5CF808185FFF2CFA889B9898C9185FF14
:101EB000EDCFCE01C2DFE8CFDF91CF910895CF9271
:101EC000DF92FF920F931F93CF93DF931F92CDB7B3
:101ED000DEB76C0181E0D60158968C9358975B96DB
:101EE0009C915B975C968C915C97981307C0509679
:101EF000ED91FC915197808185FD2DC0F601038DF8
:101F000010E00F5F1F4F0F731127F02EF601848D25
:101F1000F81210C00FB607FCF9CFD6015096ED911C
:101F2000FC915197808185FFF1CFC601698385DFE0
:101F30006981ECCF838DE80FF11DE35AFF4F608379
:101F4000D6015B960C935B975296ED91FC9153975B
:101F5000808180620CC0D6015696ED91FC91579716
:101F600060835096ED91FC915197808180648083CD
:101F700081E090E00F90DF91CF911F910F91FF9042
:101F8000DF90CF900895BF92CF92DF92EF92FF92B1
:101F9000CF93DF93EC016A017B01B22EE889F989C6
:101FA00082E08083411581EE58076105710599F043
:101FB00060E079E08DE390E0A701960170D72150B1
:101FC00031094109510956954795379527952115AE
:101FD00080E1380790F0E889F989108260E874E8B8
:101FE0008EE190E0A70196015AD7215031094109AD
:101FF00051095695479537952795EC85FD85308392
:10200000EE85FF852083188EEC89FD89B082EA89F0
:10201000FB89808180618083EA89FB898081886077
:102020008083EA89FB89808180688083EA89FB89D3
:1020300080818F7D8083DF91CF91FF90EF90DF9043
:10204000CF90BF9008951F920F920FB60F92112458
:102050000BB60F922F938F939F93EF93FF93E09183
:102060002B03F0912C038081E0913103F091320336
:1020700082FD12C09081809134038F5F8F73209115
:102080003503821751F0E0913403F0E0E55EFC4F38
:10209000958F8093340301C08081FF91EF919F91D0
:1020A0008F912F910F900BBE0F900FBE0F901F902E
:1020B00018951F920F920FB60F9211240BB60F9224
:1020C0002F933F934F935F936F937F938F939F9340
:1020D000AF93BF93EF93FF938BE193E0AEDEFF915D
:1020E000EF91BF91AF919F918F917F916F915F9190
:1020F0004F913F912F910F900BBE0F900FBE0F90FD
:102100001F9018958BE193E031DE21E0892B09F4D3
:1021100020E0822F089510921E0310921D0388EE76
:1021200093E0A0E0B0E080931F0390932003A0937E
:102130002103B093220384E292E090931C038093E6
:102140001B0385EC90E0909328038093270384EC95
:1021500090E090932A038093290380EC90E0909381
:102160002C0380932B0381EC90E090932E038093BB
:102170002D0382EC90E09093300380932F0386EC44
:1021800090E09093320380933103109234031092C5
:102190003503109236031092370308951F920F9261
:1021A0000FB60F9211240BB60F922F938F939F931C
:1021B000EF93FF93E091C803F091C9038081E09110
:1021C000CE03F091CF0382FD12C090818091D103A4
:1021D0008F5F8F732091D203821751F0E091D1036A
:1021E000F0E0E854FC4F958F8093D10301C08081CB
:1021F000FF91EF919F918F912F910F900BBE0F90B8
:102200000FBE0F901F9018951F920F920FB60F924E
:1022100011240BB60F922F933F934F935F936F93BD
:102220007F938F939F93AF93BF93EF93FF9388EB2D
:1022300093E003DEFF91EF91BF91AF919F918F915A
:102240007F916F915F914F913F912F910F900BBEB6
:102250000F900FBE0F901F90189588EB93E086DDCE
:1022600021E0892B09F420E0822F08951092BB030E
:102270001092BA0388EE93E0A0E0B0E08093BC0334
:102280009093BD03A093BE03B093BF0384E292E09A
:102290009093B9038093B8038DEC90E09093C503BD
:1022A0008093C4038CEC90E09093C7038093C603A3
:1022B00088EC90E09093C9038093C80389EC90E088
:1022C0009093CB038093CA038AEC90E09093CD0364
:1022D0008093CC038EEC90E09093CF038093CE0359
:1022E0001092D1031092D2031092D3031092D40310
:1022F00008951F920F920FB60F9211240BB60F92F2
:102300002F938F939F93EF93FF93E0916504F09148
:1023100066048081E0916B04F0916C0482FD12C030
:10232000908180916E048F5F8F7320916F0482176C
:1023300051F0E0916E04F0E0EB5AFB4F958F8093E3
:102340006E0401C08081FF91EF919F918F912F9139
:102350000F900BBE0F900FBE0F901F9018951F92FD
:102360000F920FB60F9211240BB60F922F933F933B
:102370004F935F936F937F938F939F93AF93BF938D
:10238000EF93FF9385E594E058DDFF91EF91BF91C6
:10239000AF919F918F917F916F915F914F913F91FD
:1023A0002F910F900BBE0F900FBE0F901F9018959E
:1023B00085E594E0DBDC21E0892B09F420E0822F25
:1023C0000895109258041092570488EE93E0A0E00C
:1023D000B0E08093590490935A04A0935B04B093A7
:1023E0005C0484E292E0909356048093550485ED5A
:1023F00090E0909362048093610484ED90E0909368
:1024000064048093630480ED90E09093660480936D
:10241000650481ED90E0909368048093670482EDF9
:1024200090E090936A048093690486ED90E0909325
:102430006C0480936B0410926E0410926F041092DF
:1024400070041092710408950895A8DAFDDF0E94C7
:102450009001C3EEDEE00E94EB052097E1F3B3DCD0
:10246000FACFCF92DF92EF92FF920F931F93CF9309
:10247000DF937C016A01EB0100E010E00C151D0503
:1024800071F06991D701ED91FC910190F081E02DFF
:10249000C7011995892B19F00F5F1F4FEFCFC801A6
:1024A000DF91CF911F910F91FF90EF90DF90CF9030
:1024B00008956115710581F0DB010D900020E9F7A9
:1024C000AD0141505109461B570BDC01ED91FC91C8
:1024D0000280F381E02D199480E090E00895E9CF27
:1024E000DC01ED91FC910190F081E02D199460E305
:1024F00072E0DFCF8F929F92AF92BF92DF92EF9206
:10250000FF920F931F93CF93DF93CDB7DEB7A197C1
:102510000FB6F894DEBF0FBECDBF7C01F42FD52ED1
:10252000CB0119A2223008F42AE08E010F5D1F4F63
:10253000822E912CA12CB12C6F2F7D2DA501940101
:10254000AED4F22FD32ECA01015011096A3014F40F
:10255000E0E301C0E7E3E60FD801EC93232B242B43
:10256000252B51F7B801C701A4DFA1960FB6F89447
:10257000DEBF0FBECDBFDF91CF911F910F91FF90B6
:10258000EF90DF90BF90AF909F908F900895CF9283
:10259000DF92EF92FF920F931F93CF93DF93EC01A3
:1025A0006A017B012115310579F4E881F9810190F7
:1025B000F081E02D642FDF91CF911F910F91FF905B
:1025C000EF90DF90CF9019942A303105D9F477FF3E
:1025D00018C06DE285DF8C0144275527BA014C19DC
:1025E0005D096E097F092AE0CE0184DF800F911F0B
:1025F000DF91CF911F910F91FF90EF90DF90CF90DF
:1026000008952AE0B701A601CE01DF91CF911F9175
:102610000F91FF90EF90DF90CF906CCF4F925F9231
:102620006F927F928F929F92AF92BF92CF92DF92E2
:10263000EF92FF920F931F93CF93DF93EC016A0108
:102640007B01B22E9A01AB01C701B60124D48823C5
:1026500019F063E372E024C026013701E89477F8AB
:102660002FEF3FEF4FE75FE7C301B20114D48111B1
:102670000CC02FEF3FEF4FE75FE7C301B20155D228
:1026800018161CF467E372E00BC02FEF3FEF4FE723
:102690005FE4C701B60198D31816A4F46BE372E0A7
:1026A000CE01DF91CF911F910F91FF90EF90DF90BE
:1026B000CF90BF90AF909F908F907F906F905F90E2
:1026C0004F90F7CE2FEF3FEF4FE75FECC701B6011A
:1026D0002CD287FDE3CF20E030E0A901C701B6018D
:1026E00024D287FF09C06DE2CE01FADE8C01F7FA31
:1026F000F094F7F8F09402C000E010E0A12C60E044
:1027000070E080E09FE3AB1439F020E030E040E27D
:1027100051E40FD2A394F7CF9B01AC01C701B601DE
:10272000A0D16B017C0172D22B013C019BD29B0199
:10273000AC01C701B60194D16B017C012AE0B30161
:10274000A201CE01D7DE080F191FBB2031F06FE3C5
:1027500072E0CE01AEDE080F191F7B2C772019F135
:1027600020E030E040E251E4C701B60131D36B0113
:102770007C0147D24B01AA2497FCA094BA2C2AE0F2
:1027800030E0B501A401CE0102DF080F191FC50119
:10279000B4016AD29B01AC01C701B60161D16B01E2
:1027A0007C017A94DBCFC801DF91CF911F910F910B
:1027B000FF90EF90DF90CF90BF90AF909F908F9061
:1027C0007F906F905F904F90089528CF0F931F9345
:1027D000CF93DF93EC0122DF8C01CE0188DE800FE6
:1027E000911FDF91CF911F910F910895FC0180817E
:1027F000918135C4CF93DF93EC0188819981009753
:1028000009F02DD4198218821D821C821B821A8223
:10281000DF91CF9108950F931F93CF93DF93EC0136
:102820008B016F5F7F4F88819981A8D4009731F029
:10283000998388831B830A8381E001C080E0DF9154
:10284000CF911F910F910895CF93DF93EC01888171
:102850009981892B29F08A819B818617970758F4E3
:10286000CE01D9DF882341F08C819D81892B19F419
:10287000E881F981108281E0DF91CF910895EF9294
:10288000FF920F931F93CF93DF93EC017B018A019B
:10289000BA01DADF811103C0CE01ACDF06C01D83AF
:1028A0000C83B701888199816CD5CE01DF91CF91DE
:1028B0001F910F91FF90EF900895FC0111821082FB
:1028C00013821282158214826115710551F0FB0189
:1028D00001900020E9F7AF0141505109461B570B09
:1028E000CECF0895CF93DF93EC016115710559F0B8
:1028F000FB0101900020E9F7AF0141505109461B4F
:10290000570BBDDF01C076DFCE01DF91CF91089577
:10291000EF92FF920F931F93CF93DF93EC017B0114
:102920000C811D816115710511F480E014C0411501
:10293000510581F0040F151FB80186DF8823A9F324
:10294000288139818C819D81B701820F931F19D510
:102950001D830C8381E0DF91CF911F910F91FF9038
:10296000EF900895CF93DF931F921F92CDB7DEB7FC
:1029700069831A8241E050E0BE016F5F7F4FC8DF7C
:102980000F900F90DF91CF910895CF93DF93FC01CB
:10299000848195814817590770F4C081D1817727C8
:1029A00067FD7095CE01840F951FE0D4009719F054
:1029B0008C1B9D0B02C08FEF9FEFDF91CF9108958D
:1029C00040E050E0E2CFBF92CF92DF92EF92FF92D1
:1029D0000F931F93CF93DF936C017B01EA01890171
:1029E0002417350720F48D2FE901042F182F62E3F7
:1029F00072E0C60162DFD70114968D919C91159704
:102A0000C817D907C0F48017910708F48C01D701C3
:102A1000ED91FC911197E00FF11FB08010826D9144
:102A20007C916C0F7D1FC6015DDFD701ED91FC919C
:102A3000E00FF11FB082C601DF91CF911F910F917E
:102A4000FF90EF90DF90CF90BF900895FC018081C0
:102A50009181009709F076C460E070E0CB010895A1
:102A60005058BB27AA270ED075C166D130F06BD164
:102A700020F031F49F3F11F41EF45BC10EF4E09599
:102A8000E7FB51C1E92F77D180F3BA1762077307CB
:102A90008407950718F071F49EF58FC10EF4E09548
:102AA0000B2EBA2FA02D0B01B90190010C01CA0108
:102AB000A0011124FF27591B99F0593F50F4503EB3
:102AC00068F11A16F040A22F232F342F4427585FA5
:102AD000F3CF469537952795A795F0405395C9F7BD
:102AE0007EF41F16BA0B620B730B840BBAF0915075
:102AF000A1F0FF0FBB1F661F771F881FC2F70EC014
:102B0000BA0F621F731F841F48F4879577956795E6
:102B1000B795F7959E3F08F0B3CF9395880F08F0CF
:102B20009927EE0F979587950895D9D008F481E0FD
:102B300008950CD00FC107D140F0FED030F021F441
:102B40005F3F19F0F0C0511139C1F3C014D198F3AF
:102B50009923C9F35523B1F3951B550BBB27AA271E
:102B600062177307840738F09F5F5F4F220F331F90
:102B7000441FAA1FA9F333D00E2E3AF0E0E830D05C
:102B800091505040E695001CCAF729D0FE2F27D05F
:102B9000660F771F881FBB1F261737074807AB072D
:102BA000B0E809F0BB0B802DBF01FF2793585F4FA2
:102BB0002AF09E3F510568F0B6C000C15F3FECF3BC
:102BC000983EDCF3869577956795B795F7959F5F67
:102BD000C9F7880F911D9695879597F90895E1E0BB
:102BE000660F771F881FBB1F621773078407BA071A
:102BF00020F0621B730B840BBA0BEE1F88F7E09575
:102C0000089504D06894B111D9C00895BCD088F05B
:102C10009F5790F0B92F9927B751A0F0D1F0660FC8
:102C2000771F881F991F1AF0BA95C9F712C0B130E3
:102C300081F0C3D0B1E00895C0C0672F782F8827F6
:102C4000B85F39F0B93FCCF3869577956795B39522
:102C5000D9F73EF490958095709561957F4F8F4F91
:102C60009F4F0895E89409C097FB3EF49095809596
:102C7000709561957F4F8F4F9F4F9923A9F0F92F42
:102C800096E9BB279395F695879577956795B795C0
:102C9000F111F8CFFAF4BB0F11F460FF1BC06F5FA6
:102CA0007F4F8F4F9F4F16C0882311F096E911C0B8
:102CB000772321F09EE8872F762F05C0662371F0D9
:102CC00096E8862F70E060E02AF09A95660F771FED
:102CD000881FDAF7880F9695879597F90895990FC9
:102CE0000008550FAA0BE0E8FEEF16161706E807D6
:102CF000F907C0F012161306E407F50798F0621BF7
:102D0000730B840B950B39F40A2661F0232B242BCB
:102D1000252B21F408950A2609F4A140A6958FEFEA
:102D2000811D811D089597F99F6780E870E060E03C
:102D300008959FEF80EC089500240A941616170654
:102D400018060906089500240A941216130614069C
:102D500005060895092E0394000C11F4882352F0FF
:102D6000BB0F40F4BF2B11F460FF04C06F5F7F4FB7
:102D70008F4F9F4F089557FD9058440F551F59F09E
:102D80005F3F71F04795880F97FB991F61F09F3F58
:102D900079F087950895121613061406551FF2CF81
:102DA0004695F1DF08C0161617061806991FF1CFD1
:102DB00086957105610508940895E894BB276627F8
:102DC0007727CB0197F908958ADF08F48FEF0895EC
:102DD0000BD0C0CFB1DF28F0B6DF18F0952309F093
:102DE000A2CFA7CF1124EACFC6DFA0F3959FD1F3DE
:102DF000950F50E0551F629FF001729FBB27F00DA9
:102E0000B11D639FAA27F00DB11DAA1F649F6627FD
:102E1000B00DA11D661F829F2227B00DA11D621F4C
:102E2000739FB00DA11D621F839FA00D611D221F06
:102E3000749F3327A00D611D231F849F600D211DEA
:102E4000822F762F6A2F11249F5750408AF0E1F08D
:102E500088234AF0EE0FFF1FBB1F661F771F881FD6
:102E600091505040A9F79E3F510570F05CCFA6CF1E
:102E70005F3FECF3983EDCF3869577956795B795C1
:102E8000F795E7959F5FC1F7FE2B880F911D9695EB
:102E9000879597F9089523DF880B990B0895A1E290
:102EA0001A2EAA1BBB1BFD010DC0AA1FBB1FEE1FC4
:102EB000FF1FA217B307E407F50720F0A21BB30B0F
:102EC000E40BF50B661F771F881F991F1A9469F78B
:102ED00060957095809590959B01AC01BD01CF01E7
:102EE0000895052E97FB16F400940FD057FD05D0DA
:102EF000D6DF07FC02D046F408C0509540953095C7
:102F000021953F4F4F4F5F4F089590958095709555
:102F100061957F4F8F4F9F4F0895EE0FFF1F0590D4
:102F2000F491E02D19940790F691E02D1994CF9328
:102F3000DF938230910510F482E090E0E091F40498
:102F4000F091F50420E030E0A0E0B0E0309739F1F6
:102F50004081518148175907B8F04817590771F453
:102F600082819381109729F013969C938E931297E8
:102F70002CC09093F5048093F40427C021153105EB
:102F800031F04217530718F0A901DB0101C0EF012E
:102F90009A01BD01DF010280F381E02DD7CF211519
:102FA0003105F9F0281B390B2430310580F48A8172
:102FB0009B816115710521F0FB019383828304C01D
:102FC0009093F5048093F404FE01329644C0FE0110
:102FD000E20FF31F819391932250310939832883A3
:102FE0003AC02091F2043091F304232B41F4209154
:102FF0000202309103023093F3042093F2042091F3
:103000000002309101022115310541F42DB73EB780
:103010004091040250910502241B350BE091F2040B
:10302000F091F304E217F307A0F42E1B3F0B2817CF
:10303000390778F0AC014E5F5F4F2417350748F031
:103040004E0F5F1F5093F3044093F20481939193CA
:1030500002C0E0E0F0E0CF01DF91CF910895CF937F
:10306000DF93009709F487C0FC0132971382128224
:10307000C091F404D091F504209781F4208131812E
:10308000280F391F8091F2049091F304821793075F
:1030900079F5F093F304E093F2046DC0DE0120E0D3
:1030A00030E0AE17BF0750F412964D915C91139724
:1030B0009D014115510509F1DA01F3CFB383A283D4
:1030C00040815181840F951F8A179B0771F48D9160
:1030D0009C911197840F951F02969183808312967D
:1030E0008D919C911397938382832115310529F447
:1030F000F093F504E093F4043EC0D9011396FC93D9
:10310000EE9312974D915D91A40FB51FEA17FB073F
:1031100079F480819181840F951F0296D9011196CF
:103120009C938E938281938113969C938E93129796
:10313000E0E0F0E08A819B81009719F0FE01EC014C
:10314000F9CFCE01029628813981820F931F2091F9
:10315000F2043091F3042817390769F4309729F401
:103160001092F5041092F40402C013821282D093DC
:10317000F304C093F204DF91CF9108956F927F9290
:103180008F929F92AF92BF92CF92DF92EF92FF9277
:103190000F931F93CF93DF93EC01CB01209779F42A
:1031A000DF91CF911F910F91FF90EF90DF90CF9023
:1031B000BF90AF909F908F907F906F90B8CEFE01A0
:1031C000E60FF71F9E0122503109E217F30708F4BA
:1031D000A8C0D9010D911C91119706171707B0F0DF
:1031E0000530110508F49BC0A80144505109461749
:1031F000570708F494C002501109061B170B0193DE
:1032000011936D937C93CF012ADF89C05B01A01AD3
:10321000B10A4E01800E911EA091F404B091F50404
:10322000612C712C60E070E0109709F449C0A8157A
:10323000B905C9F5ED90FC901197670142E0C40E05
:10324000D11CCA14DB0478F147018A189B08640179
:1032500042E0C40ED11C1296BC9012971396AC910A
:10326000B5E0CB16D10440F0B282A3839182808274
:10327000D9018D939C9309C00E5F1F4F0E0D1F1D2A
:10328000F90111830083EB2DFA2F6115710531F0DF
:10329000DB011396FC93EE93129741C0F093F50473
:1032A000E093F4043CC06D917C911197661677060B
:1032B00008F43B01BD0112960D90BC91A02DB4CF36
:1032C0006091F2047091F30468157905E9F46816C9
:1032D0007906D0F440910002509101024115510548
:1032E00041F44DB75EB76091040270910502461B30
:1032F000570BE417F507A8F4F093F304E093F204F6
:10330000F901918380830BC012DE7C01009749F0A4
:10331000A801BE0122D0CE01A2DEC70104C0CE01A9
:1033200002C080E090E0DF91CF911F910F91FF905C
:10333000EF90DF90CF90BF90AF909F908F907F9055
:103340006F9008956627772723C0911189C1803235
:1033500019F089508550D0F70895FB01DC0102C0B7
:1033600001900D9241505040D8F70895FC01819191
:10337000861721F08823D9F7992708953197CF012F
:103380000895FB01DC0101900D920020E1F7089502
:103390008F929F92AF92BF92CF92DF92EF92FF9265
:1033A0000F931F93CF93DF938B016115710521F06C
:1033B000DB018C9311969C93EC015E01BFEFAB1A7D
:1033C000BB0A7501C8808C2D90E0BFDF892B11F0FE
:1033D000E501F3CFEDE2CE1208C07E01F2E0EF0E80
:1033E000F11CC980DD24D39409C02BE2C21205C0B0
:1033F0007E0142E0E40EF11CC980D12CE701219747
:1034000043E050E066E572E0CE012DD1892BB9F49E
:10341000239645E050E061E572E0CE0124D1892B8E
:1034200009F425960115110519F0D801CD93DC9307
:10343000D11000C160E070E080E89FE704C143E084
:1034400050E06EE472E0CE010ED1892B59F40115E3
:10345000110509F4F4C0B2E0EB0EF11CF801F182A1
:10346000E082EDC0F70160E070E0CB01C0E0D0E0A9
:103470007F01A0EDAA2EAC0C29E02A1528F14D2DD4
:103480004260B42E2D2D2870D2FE04C0211124C01C
:10349000219622C021112197A5E0B0E09B01AC014B
:1034A000FAD0660F771F881F991F6A0D711D811D45
:1034B000911D6839A9E97A078A07A9E19A0760F09E
:1034C000BD2DB660BB2E08C02EEFA2120AC0D3FCE1
:1034D00050C04D2D4860B42E3196D701CC90DB2CD6
:1034E000C7CF2C2D2F7D253409F043C0A081AD32EC
:1034F00041F4BD2DB061DB2E7F0122E0E20EF11C14
:103500000CC07F01AB3231F04FEFE41AF40A21E036
:1035100030E006C0A2E0EA0EF11CA18122E030E01A
:10352000A053AA3018F0E21AF30A23C0F70120E0F2
:1035300030E02038BCE03B075CF4A901440F551F84
:10354000440F551F240F351F220F331F2A0F311D23
:10355000AF014F5F5F4F7A01A081A053AA3010F4F2
:10356000FA01E7CFD4FE03C0319521953109C20F8E
:10357000D31FD1FE09C00115110531F0E1E0EE1AAB
:10358000F108D801ED92FC926DDB2D2D23702330D4
:1035900019F04B015C0106C04B015C01B7FAB09415
:1035A000B7F8B09420E030E0A901C501B401BDDA5C
:1035B000882309F43CC0D7FF06C0D195C195D10935
:1035C0000DE612E002C005E812E06801B8E1CB1A8E
:1035D000D10890E2E92EF12CCE15DF056CF0F80150
:1035E0002591359145915491C501B401F1DB4B0111
:1035F0005C01CE19DF09F0CF04501109F594E7946E
:103600000C151D0549F78A2D880F8B2D881F8F3FBC
:1036100041F020E030E0A901C501B40186DA811152
:1036200006C082E290E09093F7048093F604C5010F
:10363000B40109C060E070E080E89FEF04C060E082
:1036400070E080EC9FE7DF91CF911F910F91FF9089
:10365000EF90DF90CF90BF90AF909F908F900895A4
:10366000992788270895FB01DC014150504088F0DC
:103670008D9181341CF08B350CF4805E6591613442
:103680001CF06B350CF4605E861B611171F3990BB5
:103690000895881BFCCF09D0A59F900DB49F900D75
:1036A000A49F800D911D11240895A29FB001B39F86
:1036B000C001A39F700D811D1124911DB29F700D3B
:1036C000811D1124911D089512E0C2E9D2E000E0AD
:1036D00005C022970109FE010BBF25DCC439D107C3
:0A36E00080E00807B1F7F894FFCF6F
:1036EA000000F804800000008C4200001041590AD2
:1036FA00590A590A590A590A590A590A590A2000EB
:10370A00000000005F0F3112B60ECF0EC10E3E0F41
:10371A000D0A006E616E00696E66006F7666002E95
:02372A0000009D
:00000001FF
