:1000000049C100000C940D0A0C94380A0C94630A40
:100010000C948E0A0C94B90A0C94E40A0C940F0BFD
:100020000C943A0B68C1000066C1000064C1000076
:1000300062C1000060C100005EC100005CC1000040
:100040005AC1000058C1000056C1000054C1000050
:1000500052C1000050C100004EC100000C94650B5D
:100060004AC100000C946B0F0C94A10F44C1000016
:1000700042C1000040C100003EC100003CC1000080
:100080003AC1000038C1000036C1000034C1000090
:100090000C9416100C944C102EC100002CC10000C2
:1000A0002AC1000028C1000026C1000024C10000B0
:1000B00022C1000020C100001EC100001CC10000C0
:1000C0001AC1000018C1000016C100000C94C11034
:1000D0000C94F71010C100000EC100000CC100000C
:1000E0000AC10000C0098A0992099E09AB09CC091E
:1000F000D909FD09F309F509F709F909FF09010A09
:100100009C0CA10CA60CB00CBA0C330DC40CCC0C7E
:10011000D40CDE0CE80CF20C010D0B0D330D150D9B
:100120001F0D290D550D580D470D4B0D510D8F0D00
:100130005C0D600D660D6A0D6E0D740D780D7C0DF5
:100140008F0D820D860D8A0D00000A0B02090C0D21
:100150000E0807030401000000000000000000007A
:10016000000000000000000000000000000000008F
:10017000000000001211100000000000000000004C
:10018000000000000000000000000000000001026C
:100190001020200808102040102040800201020199
:1001A0000804020101020408102040808040201051
:1001B00008040201800402018040201008040201AA
:1001C0000804020101020408102040800102040812
:1001D00010204080050505050705080808080202EB
:1001E00002020A0A080804040404010101010101D1
:1001F00001010303030303030303040707070C0CB4
:100200000C0C0C0C0C0C020202020606060606067A
:1002100006060B0B0B0B0B0B0B0B00002200250033
:1002200028002B002E0031003400020100000501DF
:1002300008010B0100002100240027002A002D00E6
:100240003000330001010000040107010A014E41A2
:100250004E494E495459494E46CDCCCC3D0AD72340
:100260003C17B7D13877CC2B329595E6241FB14F88
:100270000A000020410000C84200401C4620BCBECD
:100280004CCA1B0E5AAEC59D74005F03D30F7E107F
:100290002911D50311241FBECFEFD1E2DEBFCDBFA0
:1002A00000E00CBF12E0A0E0B2E0E4E4F5E300E01F
:1002B0000BBF02C007900D92A035B107D9F724E01B
:1002C000A0E5B2E001C01D92AE3EB207E1F712E038
:1002D000C2E9D2E000E006C022970109FE010BBF8F
:1002E0000E94C016CA38D10780E00807A9F70E940B
:1002F0006D110C94911A84CE80910603909107039E
:100300000196909307038093060308958091040358
:10031000909105030196909305038093040308953B
:100320000F931F9326E040E052EC61E070E081E122
:1003300093E00E940B0F26E040E052EC61E070E099
:100340008EEA93E00E940B0F26E040E052EC61E061
:1003500070E08BE494E00E940B0F61E084E00E9467
:10036000900D61E087E00E94900D42E050E06CE764
:1003700071E083E0BAD742E050E066E871E082E0E5
:10038000B4D700E010E02FE733E440E050E06FE73F
:1003900073EC89E892E027D600E010E02FE733E421
:1003A00040E050E06FE773EC80E592E01CD662E33A
:1003B00070E089E892E0C9D562E370E080E592E000
:1003C000C4D561E070E089E892E0D3D661E070E0E6
:1003D00080E592E01F910F91CCC6CF92DF92EF9211
:1003E000FF9220E030E0A9016091CA027091CB0237
:1003F0008091CC029091CD020E942D1687FD10C0F5
:1004000081E08093D30261E084E00E94C90D609195
:10041000CA027091CB028091CC029091CD021DC096
:100420001092D30260E084E00E94C90DC090CA021D
:10043000D090CB02E090CC02F090CD0220E030E0F2
:10044000A901C701B6010E942D1618161CF4C70198
:10045000B60103C0C701B60190580E944A1585E055
:100460000E94780C20E030E0A9016091C2027091F6
:10047000C3028091C4029091C5020E942D1687FD8F
:1004800010C081E08093D20261E087E00E94C90D34
:100490006091C2027091C3028091C4029091C50222
:1004A0001DC01092D20260E087E00E94C90DC0908A
:1004B000C202D090C302E090C402F090C50220E0D6
:1004C00030E0A901C701B6010E942D1618161CF4D0
:1004D000C701B60103C0C701B60190580E944A1572
:1004E00086E0FF90EF90DF90CF900C94780C8F9285
:1004F0009F92AF92BF92CF92DF92EF92FF9262E310
:1005000070E080E090E00E94DE0B83E05FD782E045
:100510005DD70E94AF0B6093FC027093FD02809345
:10052000FE029093FF022091000330910103621BB1
:10053000730B7093F3026093F202E0900603F09065
:100540000703882777FD8095982F0E947D1520E06E
:1005500030E04AE754E40E94E2144B015C01B70129
:10056000882777FD8095982F0E947D15A50194011D
:100570000E94E21426EF38E64EE753E40E94E214AC
:1005800020E635EE4FEA51E40E9431166B017C0102
:100590006093F8027093F9028093FA029093FB0241
:1005A0006091040370910503882777FD8095982F4B
:1005B0000E947D15A50194010E94E21426EF38E601
:1005C0004EE753E40E94E21420E635EE4FEA51E490
:1005D0000E9431166093F4027093F5028093F60244
:1005E0009093F7022091D302222361F0F7FAF0945E
:1005F000F7F8F094C092F802D092F902E092FA0271
:10060000F092FB022091D202222359F0DC01CB01AF
:10061000B0588093F4029093F502A093F602B09341
:10062000F70210920703109206031092050310922E
:1006300004030E94AF0B6093000370930103809347
:1006400002039093030342E050E06CE771E083E023
:100650004CD642E050E066E871E082E046D662E2C5
:1006600072E081E193E00E94B7114091F80250914D
:10067000F9026091FA027091FB0222E030E081E120
:1006800093E00E942D136BE272E081E193E00E94FF
:10069000B7114091F4025091F5026091F602709109
:1006A000F70222E030E081E193E0FF90EF90DF90ED
:1006B000CF90BF90AF909F908F900C942E13AF92DD
:1006C000BF92CF92DF92EF92FF920F931F93CF933F
:1006D00060E472E08CEE92E00E94A51360E472E0A8
:1006E00086EE92E00E94A513A0900A02B0900B0241
:1006F000C0900C02D0900D02E0900E02F0900F021C
:1007000000911002109111021F92C1E0CF938091CD
:1007100009028F93809108028F93809107028F9333
:10072000809106028F9328ED32E04AEC52E06EECA5
:1007300072E089E892E06ED5A0900A02B0900B02B8
:10074000C0900C02D0900D02E0900E02F0900F02CB
:1007500000911002109111021F92CF938091090213
:100760008F93809108028F93809107028F938091DD
:1007700006028F9324ED32E042EC52E066EC72E028
:1007800080E592E047D58DB79EB70C960FB6F894EA
:100790009EBF0FBE8DBFCF911F910F91FF90EF9025
:1007A000DF90CF90BF90AF90089586EE92E00E94C8
:1007B0003E138CEE92E00C943E136F927F928F92D8
:1007C0009F92AF92BF92CF92DF92EF92FF920F93E0
:1007D0001F93CF93DF9300D000D0CDB7DEB78091C9
:1007E000DC029091DD02A091DE02B091DF021816CA
:1007F00019061A061B060CF4C1C081E193E00E94A1
:10080000FE0D181619060CF0E5C081E193E00E9478
:10081000170E182F61E070E080E090E0CFD7612FD5
:100820008CEE92E00E94FA13153439F763E58CEEF2
:1008300092E00E9428143C016DE48CEE92E00E944C
:1008400028144C016CE48CEE92E00E9428145C01A8
:1008500062E58CEE92E00E9428146C0164E48CEE58
:1008600092E00E9428148C0165E48CEE92E00E94D4
:1008700028147C01A3014F5F5F4F94016CEE72E07E
:10088000CE0101960E942B14CE0101960E946E1497
:100890000E944A157093E5026093E402CE0101962E
:1008A0000E943E13A5014F5F5F4F96016CEE72E010
:1008B000CE0101960E942B14CE0101960E946E1467
:1008C0006093D8027093D9028093DA029093DB028E
:1008D000CE0101960E943E13A6014F5F5F4F980123
:1008E0006CEE72E0CE0101960E942B14CE010196AF
:1008F0000E946E146093D4027093D5028093D60246
:100900009093D702CE0101960E943E13A8014F5F3B
:100910005F4F97016CEE72E0CE0101960E942B149E
:10092000CE0101960E946E140E944A156093DC026B
:100930007093DD028093DE029093DF02CE01019678
:100940000E943E1360E472E08CEE92E00E94BA13C3
:1009500006D70091DC021091DD022091DE02309179
:10096000DF02600F711F821F931F6093E00270937C
:10097000E1028093E2029093E3022CC0C090E00277
:10098000D090E102E090E202F090E302E8D6A70105
:100990009601261B370B480B590B2093DC02309332
:1009A000DD024093DE025093DF0212161306140696
:1009B000150684F01092D8021092D9021092DA0231
:1009C0001092DB021092D4021092D5021092D6023D
:1009D0001092D7028EEA93E00E94FE0D18161906B7
:1009E0000CF0A3C08EEA93E00E94170E182F61E06E
:1009F00070E080E090E0E2D6612F86EE92E00E9407
:100A0000FA131A3039F763E586EE92E00E94281453
:100A10003C016DE486EE92E00E9428144C016CE4E7
:100A200086EE92E00E9428145C0162E586EE92E078
:100A30000E9428148C0164E486EE92E00E9428143F
:100A40007C0165E486EE92E00E9428146C01A3010B
:100A50004F5F5F4F940166EE72E0CE0101960E94F7
:100A60002B14CE0101960E946E140E944A157093B9
:100A7000E5026093E402CE0101960E943E13A501B7
:100A80004F5F5F4F980166EE72E0CE0101960E94C3
:100A90002B14CE0101960E946E146093D8027093BD
:100AA000D9028093DA029093DB02CE0101960E9474
:100AB0003E13A8014F5F5F4F970166EE72E0CE01D3
:100AC00001960E942B14CE0101960E946E14609331
:100AD000D4027093D5028093D6029093D702CE01B0
:100AE00001960E943E13A7014F5F5F4F960166EE8D
:100AF00072E0CE0101960E942B14CE0101960E9455
:100B00006E140E944A156093DC027093DD0280939C
:100B1000DE029093DF02CE0101960E943E1360E454
:100B200072E086EE92E00E94BA1326960FB6F89411
:100B3000DEBF0FBECDBFDF91CF911F910F91FF9010
:100B4000EF90DF90CF90BF90AF909F908F907F906D
:100B50006F90089532DECBDC8091F8029091F9021B
:100B6000A091FA02B091FB028093CE029093CF0243
:100B7000A093D002B093D1028091F4029091F5023B
:100B8000A091F602B091F7028093C6029093C7023B
:100B9000A093C802B093C90289E892E004D080E52E
:100BA00092E001D01ACC2F923F924F925F926F92B7
:100BB0007F928F929F92AF92BF92CF92DF92EF92ED
:100BC000FF920F931F93CF93DF93CDB7DEB72B9791
:100BD0000FB6F894DEBF0FBECDBF9B878A87DC01BE
:100BE000D896BC91B983B11102C01982E1C0B7D5C2
:100BF0006A837B838C839D83EA85FB8580A191A199
:100C0000A2A1B3A14A815B816C817D81481B590BF4
:100C10006A0B7B0B84A595A5A6A5B7A54817590710
:100C20006A077B0710F3028CF38DE02D80809180A2
:100C3000A280B380AA85BB855E96ED91FC915F97FB
:100C4000A501940160817181828193810E94791450
:100C50002B013C01EA85FB85208931894289538932
:100C60000E943116AA85BB8594962D913D914D9198
:100C70005C9197970E947A146B017C01EA85FB8551
:100C800064A375A386A397A324A835A806A917A9CA
:100C90009101A8010E942D1618161CF4C101D8015B
:100CA00018C0AA85BB85D0968D919D910D90BC9161
:100CB000A02D8E839F83A887B9879C01AD01C701B2
:100CC000B6010E94DE1487FF0AC08E819F81A8852D
:100CD000B985EA85FB8584A395A3A6A3B7A3AA85B6
:100CE000BB851C962D913D914D915C911F97C30141
:100CF000B2010E943116EA85FB8524A135A146A1E7
:100D000057A10E947A146B017C01AA85BB85989635
:100D10002D913D914D915C919B97C501B4010E942D
:100D20007914EA85FB8524893589468957890E948B
:100D300031169B01AC01C701B6010E9479146B0109
:100D40007C019101A8010E942D161816BCF0AA85FD
:100D5000BB85D0962C90D097D1963C90D197D296C7
:100D60000C91D297D3961C919101A801B601C701AD
:100D70000E94DE1487FD02C016018701AA85BB858B
:100D80005C96ED91FC915D97C101D80180839183C0
:100D9000A283B383EA85FB8580A691A6A2A6B3A60B
:100DA0008A819B81AC81BD8180A391A3A2A3B3A3BF
:100DB00089812B960FB6F894DEBF0FBECDBFDF91B1
:100DC000CF911F910F91FF90EF90DF90CF90BF9048
:100DD000AF909F908F907F906F905F904F903F90DB
:100DE0002F9008952F923F924F925F926F927F9231
:100DF0008F929F92AF92BF92CF92DF92EF92FF922B
:100E00000F931F93CF93DF9300D01F92CDB7DEB720
:100E10001C012A013B014801590120E030E0A901F1
:100E2000C301B2010E94DE1487FD78C020E030E0EB
:100E3000A901C501B4010E94DE1487FD6FC020E046
:100E400030E0A901C701B6010E94DE1487FD66C02B
:100E5000F101408251826282738284829582A682ED
:100E6000B782C086D186E286F38664A575A586A57D
:100E700097A50E947B1520E030E04AE754E40E94E9
:100E8000E21469837A838B839C83F10144865586BF
:100E9000668677869B01AC01C501B4010E943116BC
:100EA0004B015C01F101608B718B828B938B2981EB
:100EB0003A814B815C81C701B6010E94E2146B014B
:100EC0007C01F101648B758B868B978B808D918D66
:100ED000019721F5A301920160E070E0CB010E942F
:100EE0007914F1016487758786879787A501940136
:100EF00060E070E0CB010E947914F101608B718B8E
:100F0000828B938BA701960160E070E0CB010E9479
:100F10007914F101648B758B868B978B0F900F90F2
:100F20000F900F90DF91CF911F910F91FF90EF9055
:100F3000DF90CF90BF90AF909F908F907F906F90F9
:100F40005F904F903F902F9008958F929F92AF9215
:100F5000BF92CF92DF92EF92FF92CF93DF93EC019B
:100F600016161706ACF56B01EE24D7FCE094FE2CA8
:100F7000C701B6010E947D154B015C016CA57DA5E2
:100F80008EA59FA50E947B159B01AC01C501B401F4
:100F90000E94E2144B015C019B01AC0168897989D4
:100FA0008A899B890E943116688B798B8A8B9B8BEF
:100FB000A50194016C897D898E899F890E94E21424
:100FC0006C8B7D8B8E8B9F8BCCA6DDA6EEA6FFA6B1
:100FD000DF91CF91FF90EF90DF90CF90BF90AF90D7
:100FE0009F908F9008952F923F924F925F926F92B1
:100FF0007F928F929F92AF92BF92CF92DF92EF92A9
:10100000FF920F931F93CF93DF93EC016A017B0153
:1010100048015901A9019801C701B6010E942D1686
:1010200087FF4EC0C8AAD9AAEAAAFBAA8CAA9DAA81
:10103000AEAABFAA88AD882309F442C02C8C3D8C8F
:10104000F1014080518062807380A5019401C30149
:10105000B2010E942D16181634F4F101808291829B
:10106000A282B3820DC0A7019601C301B2010E9402
:10107000DE1487FF05C0F101C082D182E282F382D3
:101080008CA09DA0AEA0BFA0CCA8DDA8EEA8FFA814
:10109000A7019601C501B4010E942D16181664F02F
:1010A000C8A8D9A8EAA8FBA8A7019601C501B40160
:1010B0000E94DE1487FF04C0CCA2DDA2EEA2FFA234
:1010C000DF91CF911F910F91FF90EF90DF90CF9024
:1010D000BF90AF909F908F907F906F905F904F9058
:1010E0003F902F9008958F929F92AF92BF92CF9290
:1010F000DF92EF92FF92CF93DF93EC01EC8DFD8DA9
:10110000C080D180E280F380CCA2DDA2EEA2FFA25B
:10111000EA8DFB8D80819181A281B38188A799A7F7
:10112000AAA7BBA78CA89DA8AEA8BFA8A50194019B
:10113000C701B6010E942D16181664F088A899A858
:10114000AAA8BBA8A5019401C701B6010E94DE149C
:1011500087FF04C08CA29DA2AEA2BFA2DF91CF9157
:10116000FF90EF90DF90CF90BF90AF909F908F90C7
:1011700008951F93CF93DF93EC0111E06130710567
:1011800009F010E088AD91E08927181302C0CE0164
:10119000AADF18AFDF91CF911F9108950F931F938E
:1011A000CF93DF93EC018B0188AD882361F1888DAB
:1011B000998D6817790739F12C853D854E855F85B6
:1011C00060E070E0CB010E9479146C877D878E8788
:1011D0009F87288939894A895B8960E070E0CB0163
:1011E0000E947914688B798B8A8B9B8B2C893D8923
:1011F0004E895F8960E070E0CB010E9479146C8BAE
:101200007D8B8E8B9F8B198F088FDF91CF911F91D4
:101210000F9108954F925F926F927F928F929F925B
:10122000AF92BF92CF92DF92EF92FF920F931F93F4
:10123000CF93DF9300D01F92CDB7DEB74C012701CB
:101240003801A982BA82CB82DC82FC01558F448F9F
:10125000738F628F378F268F10AE10AA11AA12AA31
:1012600013AA80E090E0AFE7B3E484AB95ABA6AB04
:10127000B7AB84E690E0A0E0B0E084A795A7A6A76E
:10128000B7A76C8D7D8DC40189DFC88CD98CEA8CA1
:10129000FB8C09811A812B813C81B301A201C4011D
:1012A000A1DD5DD2F40144A455A466A477A4641919
:1012B00075098609970960A371A382A393A30F9070
:1012C0000F900F900F90DF91CF911F910F91FF9092
:1012D000EF90DF90CF90BF90AF909F908F907F90D6
:1012E0006F905F904F9008950895883008F06DC01A
:1012F000E82FF0E0EE0FFF1FEE5EFD4F718360837D
:1013000090E0FC013197E730F10590F5EE58FF4F82
:101310000C94BA16809169008C7F842B80936900AD
:10132000E89A089580916900440F551F440F551F96
:10133000837F842B80936900E99A089580916900E6
:1013400074E0440F551F7A95E1F78F7C842B8093CE
:101350006900EA9A08958091690066E0440F551F7C
:101360006A95E1F78F73842B80936900EB9A089557
:1013700080916A008C7F842B80936A00EC9A089598
:1013800080916A00440F551F440F551F837F842BA3
:1013900080936A00ED9A089580916A0024E0440FDA
:1013A000551F2A95E1F78F7C842B80936A00EE9A73
:1013B000089580916A0096E0440F551F9A95E1F7D1
:1013C0008F73842B80936A00EF9A0895883020F5FC
:1013D000482F50E0FA013197E730F10560F4E75803
:1013E000FF4F0C94BA16E8980DC0E9980BC0EA9824
:1013F00009C0EB9807C0EC9805C0ED9803C0EE98C3
:1014000001C0EF98E82FF0E0EE0FFF1FEE5EFD4FFA
:1014100084E799E09183808308951F920F920FB61D
:101420000F9211240BB60F922F933F934F935F931C
:101430006F937F938F939F93AF93BF93EF93FF939C
:10144000E0911602F09117021995FF91EF91BF916B
:10145000AF919F918F917F916F915F914F913F914C
:101460002F910F900BBE0F900FBE0F901F901895ED
:101470001F920F920FB60F9211240BB60F922F935B
:101480003F934F935F936F937F938F939F93AF930C
:10149000BF93EF93FF93E0911802F0911902199511
:1014A000FF91EF91BF91AF919F918F917F916F913C
:1014B0005F914F913F912F910F900BBE0F900FBEF8
:1014C0000F901F9018951F920F920FB60F92112434
:1014D0000BB60F922F933F934F935F936F937F932E
:1014E0008F939F93AF93BF93EF93FF93E0911A0273
:1014F000F0911B021995FF91EF91BF91AF919F91D0
:101500008F917F916F915F914F913F912F910F90AC
:101510000BBE0F900FBE0F901F9018951F920F9249
:101520000FB60F9211240BB60F922F933F934F9348
:101530005F936F937F938F939F93AF93BF93EF933B
:10154000FF93E0911C02F0911D021995FF91EF911C
:10155000BF91AF919F918F917F916F915F914F91CB
:101560003F912F910F900BBE0F900FBE0F901F90C9
:1015700018951F920F920FB60F9211240BB60F926F
:101580002F933F934F935F936F937F938F939F938B
:10159000AF93BF93EF93FF93E0911202F091130288
:1015A0001995FF91EF91BF91AF919F918F917F918D
:1015B0006F915F914F913F912F910F900BBE0F90C4
:1015C0000FBE0F901F9018951F920F920FB60F929B
:1015D00011240BB60F922F933F934F935F936F930A
:1015E0007F938F939F93AF93BF93EF93FF93E0917C
:1015F0001402F09115021995FF91EF91BF91AF91EF
:101600009F918F917F916F915F914F913F912F911A
:101610000F900BBE0F900FBE0F901F9018951F924A
:101620000F920FB60F9211240BB60F922F933F9388
:101630004F935F936F937F938F939F93AF93BF93DA
:10164000EF93FF93E0911E02F0911F021995FF9115
:10165000EF91BF91AF919F918F917F916F915F912A
:101660004F913F912F910F900BBE0F900FBE0F9097
:101670001F9018951F920F920FB60F9211240BB660
:101680000F922F933F934F935F936F937F938F931B
:101690009F93AF93BF93EF93FF93E0912002F0915C
:1016A00021021995FF91EF91BF91AF919F918F9179
:1016B0007F916F915F914F913F912F910F900BBE52
:1016C0000F900FBE0F901F9018951F920F920FB69C
:1016D0000F9211242F933F938F939F93AF93BF93B8
:1016E0008091090390910A03A0910B03B0910C0320
:1016F0003091080323E0230F2D3720F40196A11D1C
:10170000B11D05C026E8230F0296A11DB11D20932F
:1017100008038093090390930A03A0930B03B093EB
:101720000C0380910D0390910E03A0910F03B091D3
:1017300010030196A11DB11D80930D0390930E031C
:10174000A0930F03B0931003BF91AF919F918F911E
:101750003F912F910F900FBE0F901F9018952FB7AC
:10176000F8946091090370910A0380910B039091A2
:101770000C032FBF08953FB7F89480910D0390910B
:101780000E03A0910F03B091100326B5A89B05C0CE
:101790002F3F19F00196A11DB11D3FBF6627782F7D
:1017A000892F9A2F620F711D811D911D42E0660FD6
:1017B000771F881F991F4A95D1F708958F929F929E
:1017C000AF92BF92CF92DF92EF92FF926B017C01BA
:1017D000D2DF4B015C01C114D104E104F104E9F052
:1017E0000E947814C8DF681979098A099B09683E44
:1017F00073408105910578F321E0C21AD108E10810
:10180000F10888EE880E83E0981EA11CB11CC1145B
:10181000D104E104F10431F7DECFFF90EF90DF90C7
:10182000CF90BF90AF909F908F900895789484B59B
:10183000826084BD84B5816084BD85B5826085BDCC
:1018400085B5816085BDEEE6F0E0808181608083B2
:10185000E1E8F0E010828081826080838081816095
:101860008083E0E8F0E0808181608083E1EBF0E05C
:10187000808184608083E0EBF0E080818160808300
:10188000E1E9F0E0808182608083808181608083F3
:10189000E0E9F0E0808181608083E1EAF0E080812E
:1018A00082608083808181608083E0EAF0E08081D3
:1018B00081608083E1E2F1E08081826080838081C9
:1018C00081608083E0E2F1E0808181608083EAE7EB
:1018D000F0E0808184608083808182608083808169
:1018E000816080838081806880831092C100089528
:1018F0001F93CF93DF93182FEB0161E011D1209755
:1019000011F460E004C0CF3FD10531F461E0812FD4
:10191000DF91CF911F913DC1E12FF0E0E85BFE4FD9
:10192000449150E0FA013197E231F10508F09BC093
:10193000E058FF4F0C94BA1684B5806884BDC7BDCB
:1019400097C084B5806284BDC8BD92C0809180007C
:10195000806880938000D0938900C093880088C0FD
:1019600080918000806280938000D0938B00C09330
:101970008A007EC080918000886080938000D09330
:101980008D00C0938C0074C08091B00080688093FB
:10199000B000C093B3006CC08091B00080628093AF
:1019A000B000C093B40064C08091900080688093C0
:1019B0009000D0939900C09398005AC080919000F5
:1019C000806280939000D0939B00C0939A0050C097
:1019D00080919000886080939000D0939D00C09388
:1019E0009C0046C08091A00080688093A0008091F8
:1019F000A0008F7B8093A000D093A900C093A80083
:101A000037C08091A00080628093A000D093AB008B
:101A1000C093AA002DC08091A00088608093A00090
:101A2000D093AD00C093AC0023C0809120018068AA
:101A300080932001D0932901C093280119C080917F
:101A40002001806280932001D0932B01C0932A0152
:101A50000FC080912001886080932001D0932D01D8
:101A6000C0932C0105C0C038D1050CF04FCF49CF31
:101A7000DF91CF911F91089590E0FC013197E23101
:101A8000F10508F04CC0EE56FF4F0C94BA16809149
:101A900080008F7703C0809180008F7D80938000CD
:101AA000089580918000877FF9CF84B58F7702C039
:101AB00084B58F7D84BD08958091B0008F7703C079
:101AC0008091B0008F7D8093B00008958091900048
:101AD0008F7707C0809190008F7D03C08091900028
:101AE000877F8093900008958091A0008F7707C032
:101AF0008091A0008F7D03C08091A000877F80939C
:101B0000A0000895809120018F7707C08091200167
:101B10008F7D03C080912001877F809320010895ED
:101B2000CF93DF9390E0FC01E257FE4F2491FC013C
:101B3000EC52FE4F8491882349F190E0880F991F61
:101B4000FC01EC5CFD4FA591B491865E9D4FFC01BC
:101B5000C591D4919FB7611108C0F8948C912095DC
:101B600082238C93888182230AC0623051F4F894D6
:101B70008C91322F309583238C938881822B88839C
:101B800004C0F8948C91822B8C939FBFDF91CF91EE
:101B900008950F931F93CF93DF931F92CDB7DEB7B6
:101BA000282F30E0F901E85BFE4F8491F901E257FC
:101BB000FE4F1491F901EC52FE4F04910023C1F045
:101BC000882319F0698358DF6981E02FF0E0EE0F78
:101BD000FF1FE65EFD4FA591B4919FB7F8948C91DD
:101BE000611103C01095812301C0812B8C939FBF8D
:101BF0000F90DF91CF911F910F910895FC01818D7E
:101C0000228D90E0805C9F4F821B91098F739927F2
:101C10000895FC01918D828D981731F0828DE80F27
:101C2000F11D858D90E008958FEF9FEF0895FC01E1
:101C3000918D828D981761F0828DDF01A80FB11D03
:101C40005D968C91928D9F5F9F73928F90E0089527
:101C50008FEF9FEF08958AEC9FE0892B39F080E0A9
:101C600090E0892B19F096D1811123C085E790E18E
:101C7000892B39F080E090E0892B19F036D2811160
:101C80001BC080E291E1892B39F080E090E0892B44
:101C900019F0D6D2811113C080E090E0892BA1F019
:101CA00080E090E0892B81F00E94000081110AC041
:101CB00008950E940000DACF0E940000E2CF0E9447
:101CC0000000EACF0C9400000895FC01848DDF0130
:101CD000A80FB11DA35ABF4F2C91848D90E001969F
:101CE0008F739927848FA689B7892C93A089B1898E
:101CF0008C9180648C93938D848D981306C0028898
:101D0000F389E02D80818F7D80830895CF93DF93C9
:101D1000EC01888D8823C1F0EA89FB89808185FDEB
:101D200005C0A889B9898C9186FD0EC00FB607FC45
:101D3000F5CF808185FFF2CFA889B9898C9185FF85
:101D4000EDCFCE01C2DFE8CFDF91CF910895CF92E2
:101D5000DF92FF920F931F93CF93DF931F92CDB724
:101D6000DEB76C0181E0D60158968C9358975B964C
:101D70009C915B975C968C915C97981307C05096EA
:101D8000ED91FC915197808185FD2DC0F601038D69
:101D900010E00F5F1F4F0F731127F02EF601848D97
:101DA000F81210C00FB607FCF9CFD6015096ED918E
:101DB000FC915197808185FFF1CFC601698385DF52
:101DC0006981ECCF838DE80FF11DE35AFF4F6083EB
:101DD000D6015B960C935B975296ED91FC915397CD
:101DE000808180620CC0D6015696ED91FC91579788
:101DF00060835096ED91FC9151978081806480833F
:101E000081E090E00F90DF91CF911F910F91FF90B3
:101E1000DF90CF900895BF92CF92DF92EF92FF9222
:101E2000CF93DF93EC016A017B01B22EE889F98937
:101E300082E08083411581EE58076105710599F0B4
:101E400060E079E08DE390E0A701960171D7215021
:101E5000310941095109569547953795279521151F
:101E600080E1380790F0E889F989108260E874E829
:101E70008EE190E0A70196015BD72150310941091D
:101E800051095695479537952795EC85FD85308303
:101E9000EE85FF852083188EEC89FD89B082EA8962
:101EA000FB89808180618083EA89FB8980818860E9
:101EB0008083EA89FB89808180688083EA89FB8945
:101EC00080818F7D8083DF91CF91FF90EF90DF90B5
:101ED000CF90BF9008951F920F920FB60F921124CA
:101EE0000BB60F922F938F939F93EF93FF93E091F5
:101EF0002103F09122038081E0912703F0912803D0
:101F000082FD12C0908180912A038F5F8F73209190
:101F10002B03821751F0E0912A03F0E0EF5EFC4FB3
:101F2000958F80932A0301C08081FF91EF919F914B
:101F30008F912F910F900BBE0F900FBE0F901F909F
:101F400018951F920F920FB60F9211240BB60F9295
:101F50002F933F934F935F936F937F938F939F93B1
:101F6000AF93BF93EF93FF9381E193E0AEDEFF91D8
:101F7000EF91BF91AF919F918F917F916F915F9101
:101F80004F913F912F910F900BBE0F900FBE0F906E
:101F90001F90189581E193E031DE21E0892B09F44F
:101FA00020E0822F0895109214031092130388EEFC
:101FB00093E0A0E0B0E08093150390931603A09304
:101FC0001703B093180382E392E090931203809377
:101FD000110385EC90E090931E0380931D0384EC25
:101FE00090E09093200380931F0380EC90E0909307
:101FF00022038093210381EC90E09093240380934B
:10200000230382EC90E0909326038093250386ECD3
:1020100090E0909328038093270310922A03109254
:102020002B0310922C0310922D0308951F920F92F0
:102030000FB60F9211240BB60F922F938F939F938D
:10204000EF93FF93E091BE03F091BF038081E09195
:10205000C403F091C50382FD12C090818091C70333
:102060008F5F8F732091C803821751F0E091C703EF
:10207000F0E0E255FC4F958F8093C70301C080814B
:10208000FF91EF919F918F912F910F900BBE0F9029
:102090000FBE0F901F9018951F920F920FB60F92C0
:1020A00011240BB60F922F933F934F935F936F932F
:1020B0007F938F939F93AF93BF93EF93FF938EEA9A
:1020C00093E003DEFF91EF91BF91AF919F918F91CC
:1020D0007F916F915F914F913F912F910F900BBE28
:1020E0000F900FBE0F901F9018958EEA93E086DD3B
:1020F00021E0892B09F420E0822F08951092B1038A
:102100001092B00388EE93E0A0E0B0E08093B203B9
:102110009093B303A093B403B093B50382E392E02A
:102120009093AF038093AE038DEC90E09093BB034C
:102130008093BA038CEC90E09093BD038093BC0332
:1021400088EC90E09093BF038093BE0389EC90E00D
:102150009093C1038093C0038AEC90E09093C303F3
:102160008093C2038EEC90E09093C5038093C403E8
:102170001092C7031092C8031092C9031092CA03A9
:1021800008951F920F920FB60F9211240BB60F9263
:102190002F938F939F93EF93FF93E0915B04F091C4
:1021A0005C048081E0916104F091620482FD12C0C0
:1021B0009081809164048F5F8F73209165048217F2
:1021C00051F0E0916404F0E0E55BFB4F958F809364
:1021D000640401C08081FF91EF919F918F912F91B5
:1021E0000F900BBE0F900FBE0F901F9018951F926F
:1021F0000F920FB60F9211240BB60F922F933F93AD
:102200004F935F936F937F938F939F93AF93BF93FE
:10221000EF93FF938BE494E058DDFF91EF91BF9132
:10222000AF919F918F917F916F915F914F913F916E
:102230002F910F900BBE0F900FBE0F901F9018950F
:102240008BE494E0DBDC21E0892B09F420E0822F91
:10225000089510924E0410924D0488EE93E0A0E091
:10226000B0E080934F0490935004A0935104B09336
:10227000520482E392E090934C0480934B0485EDEA
:1022800090E0909358048093570484ED90E09093ED
:102290005A048093590480ED90E090935C048093FD
:1022A0005B0481ED90E090935E0480935D0482ED89
:1022B00090E09093600480935F0486ED90E09093AB
:1022C0006204809361041092640410926504109279
:1022D00066041092670408950895A8DAFDDF0E944D
:1022E0009001CBE2DEE00E94AA052097E1F3B3DC87
:1022F000FACFCF92DF92EF92FF920F931F93CF937B
:10230000DF937C016A01EB0100E010E00C151D0574
:1023100071F06991D701ED91FC910190F081E02D70
:10232000C7011995892B19F00F5F1F4FEFCFC80117
:10233000DF91CF911F910F91FF90EF90DF90CF90A1
:1023400008956115710581F0DB010D900020E9F71A
:10235000AD0141505109461B570BDC01ED91FC9139
:102360000280F381E02D199480E090E00895E9CF98
:10237000DC01ED91FC910190F081E02D19946EE368
:1023800072E0DFCF8F929F92AF92BF92DF92EF9277
:10239000FF920F931F93CF93DF93CDB7DEB7A19733
:1023A0000FB6F894DEBF0FBECDBF7C01F42FD52E43
:1023B000CB0119A2223008F42AE08E010F5D1F4FD5
:1023C000822E912CA12CB12C6F2F7D2DA501940173
:1023D000AFD4F22FD32ECA01015011096A3014F480
:1023E000E0E301C0E7E3E60FD801EC93232B242BB5
:1023F000252B51F7B801C701A4DFA1960FB6F894B9
:10240000DEBF0FBECDBFDF91CF911F910F91FF9027
:10241000EF90DF90BF90AF909F908F900895CF92F4
:10242000DF92EF92FF920F931F93CF93DF93EC0114
:102430006A017B012115310579F4E881F981019068
:10244000F081E02D642FDF91CF911F910F91FF90CC
:10245000EF90DF90CF9019942A303105D9F477FFAF
:1024600018C06DE285DF8C0144275527BA014C194D
:102470005D096E097F092AE0CE0184DF800F911F7C
:10248000DF91CF911F910F91FF90EF90DF90CF9050
:1024900008952AE0B701A601CE01DF91CF911F91E7
:1024A0000F91FF90EF90DF90CF906CCF4F925F92A3
:1024B0006F927F928F929F92AF92BF92CF92DF9254
:1024C000EF92FF920F931F93CF93DF93EC016A017A
:1024D0007B01B22E9A01AB01C701B60125D4882336
:1024E00019F061E472E024C026013701E89477F81E
:1024F0002FEF3FEF4FE75FE7C301B20115D4811122
:102500000CC02FEF3FEF4FE75FE7C301B20156D298
:1025100018161CF465E472E00BC02FEF3FEF4FE795
:102520005FE4C701B60199D31816A4F469E472E018
:10253000CE01DF91CF911F910F91FF90EF90DF902F
:10254000CF90BF90AF909F908F907F906F905F9053
:102550004F90F7CE2FEF3FEF4FE75FECC701B6018B
:102560002DD287FDE3CF20E030E0A901C701B601FD
:1025700025D287FF09C06DE2CE01FADE8C01F7FAA1
:10258000F094F7F8F09402C000E010E0A12C60E0B5
:1025900070E080E09FE3AB1439F020E030E040E2EF
:1025A00051E410D2A394F7CF9B01AC01C701B6014F
:1025B000A1D16B017C0173D22B013C019CD29B0108
:1025C000AC01C701B60195D16B017C012AE0B301D2
:1025D000A201CE01D7DE080F191FBB2031F06DE438
:1025E00072E0CE01AEDE080F191F7B2C772019F1A7
:1025F00020E030E040E251E4C701B60132D36B0184
:102600007C0148D24B01AA2497FCA094BA2C2AE062
:1026100030E0B501A401CE0102DF080F191FC5018A
:10262000B4016BD29B01AC01C701B60162D16B0151
:102630007C017A94DBCFC801DF91CF911F910F917C
:10264000FF90EF90DF90CF90BF90AF909F908F90D2
:102650007F906F905F904F90089528CF0F931F93B6
:10266000CF93DF93EC0122DF8C01CE0188DE800F57
:10267000911FDF91CF911F910F910895FC018081EF
:1026800091811AC4CF93DF93EC01888199810097DF
:1026900009F012D4198218821D821C821B821A82B0
:1026A000DF91CF9108950F931F93CF93DF93EC01A8
:1026B0008B016F5F7F4F888199818DD4009731F0B6
:1026C000998388831B830A8381E001C080E0DF91C6
:1026D000CF911F910F910895CF93DF93EC018881E3
:1026E0009981892B29F08A819B818617970758F455
:1026F000CE01D9DF882341F08C819D81892B19F48B
:10270000E881F981108281E0DF91CF910895EF9205
:10271000FF920F931F93CF93DF93EC017B018A010C
:10272000BA01DADF811103C0CE01ACDF06C01D8320
:102730000C83B7018881998151D5CE01DF91CF916A
:102740001F910F91FF90EF900895FC01118210826C
:1027500013821282158214826115710551F0FB01FA
:1027600001900020E9F7AF0141505109461B570B7A
:10277000CECF0895CF93DF93EC016115710559F029
:10278000FB0101900020E9F7AF0141505109461BC0
:10279000570BBDDF01C076DFCE01DF91CF910895E9
:1027A000EF92FF920F931F93CF93DF93EC017B0186
:1027B0000C811D816115710511F480E014C0411573
:1027C000510581F0040F151FB80186DF8823A9F396
:1027D000288139818C819D81B701820F931FFED49E
:1027E0001D830C8381E0DF91CF911F910F91FF90AA
:1027F000EF900895CF93DF931F921F92CDB7DEB76E
:1028000069831A8241E050E0BE016F5F7F4FC8DFED
:102810000F900F90DF91CF910895CF93DF93FC013C
:10282000848195814817590770F4C081D181772739
:1028300067FD7095CE01840F951FC5D4009719F0E0
:102840008C1B9D0B02C08FEF9FEFDF91CF910895FE
:1028500040E050E0E2CFBF92CF92DF92EF92FF9242
:102860000F931F93CF93DF936C017B01EA018901E2
:102870002417350720F48D2FE901042F182F60E469
:1028800072E0C60162DFD70114968D919C91159775
:10289000C817D907C0F48017910708F48C01D70135
:1028A000ED91FC911197E00FF11FB08010826D91B6
:1028B0007C916C0F7D1FC6015DDFD701ED91FC910E
:1028C000E00FF11FB082C601DF91CF911F910F91F0
:1028D000FF90EF90DF90CF90BF900895FC01808132
:1028E0009181009709F05BC460E070E0CB0108952E
:1028F00008955058BB27AA270ED075C166D130F075
:102900006BD120F031F49F3F11F41EF45BC10EF443
:10291000E095E7FB51C1E92F77D180F3BA17620741
:1029200073078407950718F071F49EF58FC10EF4B4
:10293000E0950B2EBA2FA02D0B01B90190010C01CF
:10294000CA01A0011124FF27591B99F0593F50F4E7
:10295000503E68F11A16F040A22F232F342F44273F
:10296000585FF3CF469537952795A795F040539537
:10297000C9F77EF41F16BA0B620B730B840BBAF007
:102980009150A1F0FF0FBB1F661F771F881FC2F772
:102990000EC0BA0F621F731F841F48F48795779586
:1029A0006795B795F7959E3F08F0B3CF9395880F3D
:1029B00008F09927EE0F979587950895D9D008F4D8
:1029C00081E008950CD00FC107D140F0FED030F067
:1029D00021F45F3F19F0F0C0511139C1F3C014D197
:1029E00098F39923C9F35523B1F3951B550BBB27D6
:1029F000AA2762177307840738F09F5F5F4F220F83
:102A0000331F441FAA1FA9F333D00E2E3AF0E0E87B
:102A100030D091505040E695001CCAF729D0FE2FC7
:102A200027D0660F771F881FBB1F26173707480759
:102A3000AB07B0E809F0BB0B802DBF01FF2793580F
:102A40005F4F2AF09E3F510568F0B6C000C15F3F5E
:102A5000ECF3983EDCF3869577956795B795F795F7
:102A60009F5FC9F7880F911D9695879597F90895EF
:102A7000E1E0660F771F881FBB1F6217730784078B
:102A8000BA0720F0621B730B840BBA0BEE1F88F79A
:102A9000E095089504D06894B111D9C00895BCD0D0
:102AA00088F09F5790F0B92F9927B751A0F0D1F037
:102AB000660F771F881F991F1AF0BA95C9F712C0C1
:102AC000B13081F0C3D0B1E00895C0C0672F782F36
:102AD0008827B85F39F0B93FCCF38695779567952D
:102AE000B395D9F73EF490958095709561957F4F99
:102AF0008F4F9F4F0895E89409C097FB3EF490953F
:102B00008095709561957F4F8F4F9F4F9923A9F0C6
:102B1000F92F96E9BB279395F69587957795679555
:102B2000B795F111F8CFFAF4BB0F11F460FF1BC099
:102B30006F5F7F4F8F4F9F4F16C0882311F096E92C
:102B400011C0772321F09EE8872F762F05C06623DA
:102B500071F096E8862F70E060E02AF09A95660F93
:102B6000771F881FDAF7880F9695879597F908954C
:102B7000990F0008550FAA0BE0E8FEEF161617068E
:102B8000E807F907C0F012161306E407F50798F0F6
:102B9000621B730B840B950B39F40A2661F0232B0F
:102BA000242B252B21F408950A2609F4A140A6958B
:102BB0008FEF811D811D089597F99F6780E870E070
:102BC00060E008959FEF80EC089500240A941616A3
:102BD000170618060906089500240A94121613060B
:102BE000140605060895092E0394000C11F4882399
:102BF00052F0BB0F40F4BF2B11F460FF04C06F5FB5
:102C00007F4F8F4F9F4F089557FD9058440F551F8A
:102C100059F05F3F71F04795880F97FB991F61F05E
:102C20009F3F79F087950895121613061406551FD5
:102C3000F2CF4695F1DF08C0161617061806991F41
:102C4000F1CF86957105610508940895E894BB2736
:102C500066277727CB0197F908958ADF08F48FEF6D
:102C600008950BD0C0CFB1DF28F0B6DF18F0952360
:102C700009F0A2CFA7CF1124EACFC6DFA0F3959F1A
:102C8000D1F3950F50E0551F629FF001729FBB2753
:102C9000F00DB11D639FAA27F00DB11DAA1F649FFF
:102CA0006627B00DA11D661F829F2227B00DA11DB2
:102CB000621F739FB00DA11D621F839FA00D611D38
:102CC000221F749F3327A00D611D231F849F600D59
:102CD000211D822F762F6A2F11249F5750408AF092
:102CE000E1F088234AF0EE0FFF1FBB1F661F771F1E
:102CF000881F91505040A9F79E3F510570F05CCF5E
:102D0000A6CF5F3FECF3983EDCF386957795679509
:102D1000B795F795E7959F5FC1F7FE2B880F911D3B
:102D20009695879597F9089523DF880B990B089559
:102D3000A1E21A2EAA1BBB1BFD010DC0AA1FBB1FBF
:102D4000EE1FFF1FA217B307E407F50720F0A21B31
:102D5000B30BE40BF50B661F771F881F991F1A949E
:102D600069F760957095809590959B01AC01BD01C8
:102D7000CF010895EE0FFF1F0590F491E02D1994F7
:102D80000790F691E02D1994CF93DF93823091054F
:102D900010F482E090E0E091EA04F091EB0420E08E
:102DA00030E0A0E0B0E0309739F140815181481720
:102DB0005907B8F04817590771F482819381109729
:102DC00029F013969C938E9312972CC09093EB044A
:102DD0008093EA0427C02115310531F042175307CB
:102DE00018F0A901DB0101C0EF019A01BD01DF016B
:102DF0000280F381E02DD7CF21153105F9F0281B92
:102E0000390B2430310580F48A819B81611571056D
:102E100021F0FB019383828304C09093EB048093A1
:102E2000EA04FE01329644C0FE01E20FF31F8193D3
:102E3000919322503109398328833AC02091E804C4
:102E40003091E904232B41F42091020230910302D6
:102E50003093E9042093E8042091000230910102AC
:102E60002115310541F42DB73EB740910402509130
:102E70000502241B350BE091E804F091E904E21708
:102E8000F307A0F42E1B3F0B2817390778F0AC018D
:102E90004E5F5F4F2417350748F04E0F5F1F50936A
:102EA000E9044093E8048193919302C0E0E0F0E0EC
:102EB000CF01DF91CF910895CF93DF93009709F46D
:102EC00087C0FC01329713821282C091EA04D0912C
:102ED000EB04209781F420813181280F391F8091E4
:102EE000E8049091E9048217930779F5F093E904D7
:102EF000E093E8046DC0DE0120E030E0AE17BF07CC
:102F000050F412964D915C9113979D014115510516
:102F100009F1DA01F3CFB383A28340815181840F99
:102F2000951F8A179B0771F48D919C911197840FBF
:102F3000951F02969183808312968D919C91139791
:102F4000938382832115310529F4F093EB04E093F8
:102F5000EA043EC0D9011396FC93EE9312974D916B
:102F60005D91A40FB51FEA17FB0779F48081918169
:102F7000840F951F0296D90111969C938E9382819E
:102F8000938113969C938E931297E0E0F0E08A81F0
:102F90009B81009719F0FE01EC01F9CFCE0102965A
:102FA00028813981820F931F2091E8043091E90430
:102FB0002817390769F4309729F41092EB0410921E
:102FC000EA0402C013821282D093E904C093E80499
:102FD000DF91CF9108956F927F928F929F92AF92DF
:102FE000BF92CF92DF92EF92FF920F931F93CF93F6
:102FF000DF93EC01CB01209779F4DF91CF911F9102
:103000000F91FF90EF90DF90CF90BF90AF909F9087
:103010008F907F906F90B8CEFE01E60FF71F9E0154
:1030200022503109E217F30708F4A8C0D9010D9125
:103030001C91119706171707B0F00530110508F419
:103040009BC0A801445051094617570708F494C083
:1030500002501109061B170B019311936D937C937A
:10306000CF012ADF89C05B01A01AB10A4E01800E90
:10307000911EA091EA04B091EB04612C712C60E0E8
:1030800070E0109709F449C0A815B905C9F5ED908D
:10309000FC901197670142E0C40ED11CCA14DB04F6
:1030A00078F147018A189B08640142E0C40ED11CE4
:1030B0001296BC9012971396AC91B5E0CB16D10442
:1030C00040F0B282A38391828082D9018D939C9338
:1030D00009C00E5F1F4F0E0D1F1DF90111830083E4
:1030E000EB2DFA2F6115710531F0DB011396FC937E
:1030F000EE93129741C0F093EB04E093EA043CC0D6
:103100006D917C9111976616770608F43B01BD011D
:1031100012960D90BC91A02DB4CF6091E8047091EF
:10312000E90468157905E9F468167906D0F4409148
:103130000002509101024115510541F44DB75EB7AF
:103140006091040270910502461B570BE417F507C6
:10315000A8F4F093E904E093E804F90191838083F3
:103160000BC012DE7C01009749F0A801BE0122D0FD
:10317000CE01A2DEC70104C0CE0102C080E090E013
:10318000DF91CF911F910F91FF90EF90DF90CF9043
:10319000BF90AF909F908F907F906F90089566271B
:1031A000772723C0911189C1803219F08950855049
:1031B000D0F70895FB01DC0102C001900D9241504F
:1031C0005040D8F70895FC018191861721F088239B
:1031D000D9F7992708953197CF010895FB01DC01B4
:1031E00001900D920020E1F708958F929F92AF9287
:1031F000BF92CF92DF92EF92FF920F931F93CF93E4
:10320000DF938B016115710521F0DB018C93119621
:103210009C93EC015E01BFEFAB1ABB0A7501C8803D
:103220008C2D90E0BFDF892B11F0E501F3CFEDE2AB
:10323000CE1208C07E01F2E0EF0EF11CC980DD2441
:10324000D39409C02BE2C21205C07E0142E0E40E15
:10325000F11CC980D12CE701219743E050E066E5DD
:1032600072E0CE012DD1892BB9F4239645E050E0D0
:1032700061E572E0CE0124D1892B09F42596011570
:10328000110519F0D801CD93DC93D11000C160E095
:1032900070E080E89FE704C143E050E06EE472E034
:1032A000CE010ED1892B59F40115110509F4F4C092
:1032B000B2E0EB0EF11CF801F182E082EDC0F70103
:1032C00060E070E0CB01C0E0D0E07F01A0EDAA2E6D
:1032D000AC0C29E02A1528F14D2D4260B42E2D2D7D
:1032E0002870D2FE04C0211124C0219622C02111D1
:1032F0002197A5E0B0E09B01AC01FAD0660F771FE3
:10330000881F991F6A0D711D811D911D6839A9E9DA
:103310007A078A07A9E19A0760F0BD2DB660BB2E37
:1033200008C02EEFA2120AC0D3FC50C04D2D486039
:10333000B42E3196D701CC90DB2CC7CF2C2D2F7D0E
:10334000253409F043C0A081AD3241F4BD2DB061F8
:10335000DB2E7F0122E0E20EF11C0CC07F01AB32BC
:1033600031F04FEFE41AF40A21E030E006C0A2E0A9
:10337000EA0EF11CA18122E030E0A053AA3018F03F
:10338000E21AF30A23C0F70120E030E02038BCE065
:103390003B075CF4A901440F551F440F551F240F30
:1033A000351F220F331F2A0F311DAF014F5F5F4FB3
:1033B0007A01A081A053AA3010F4FA01E7CFD4FE1D
:1033C00003C0319521953109C20FD31FD1FE09C029
:1033D0000115110531F0E1E0EE1AF108D801ED9286
:1033E000FC9289DB2D2D2370233019F04B015C01F9
:1033F00006C04B015C01B7FAB094B7F8B09420E076
:1034000030E0A901C501B401D9DA882309F43CC030
:10341000D7FF06C0D195C195D1090DE612E002C0D3
:1034200005E812E06801B8E1CB1AD10890E2E92E74
:10343000F12CCE15DF056CF0F80125913591459101
:103440005491C501B4010DDC4B015C01CE19DF09BB
:10345000F0CF04501109F594E7940C151D0549F7B8
:103460008A2D880F8B2D881F8F3F41F020E030E0A0
:10347000A901C501B401A2DA811106C082E290E07F
:103480009093ED048093EC04C501B40109C060E0A1
:1034900070E080E89FEF04C060E070E080EC9FE7A0
:1034A000DF91CF911F910F91FF90EF90DF90CF9020
:1034B000BF90AF909F908F90089599278827089587
:1034C000FB01DC014150504088F08D9181341CF0AB
:1034D0008B350CF4805E659161341CF06B350CF417
:1034E000605E861B611171F3990B0895881BFCCFF8
:1034F00009D0A59F900DB49F900DA49F800D911DA4
:1035000011240895A29FB001B39FC001A39F700D25
:10351000811D1124911DB29F700D811D1124911DDB
:10352000089512E0C2E9D2E000E005C02297010947
:10353000FE010BBF25DCC439D10780E00807B1F7D5
:04354000F894FFCF2D
:103544000000EE0480006F12833A00007041CDCC7D
:103554004C3E740974097409740974097409740972
:1035640074094D6561205370642000202000000020
:103574000000A70E7911FE0D170E090E860E0D0A16
:10358400006E616E00696E66006F7666002E000044
:00000001FF
